:040000000DEF00F010
:040008008DEF38F050
:06001800FF0038EF32F09A
:10260000009074007C74001873000000000C6E00D1
:1026100062700000000000000000000000000000E8
:102620004100F62600BE7400BE7400BE7400BE7485
:1026300000BE740002400000000240000100C9001A
:10264000E824000000525CCFFFFFFF004173736F6E
:102650006369617465642053544120686173204943
:10266000502041646472657373202225752E257590
:102670002E25752E2575220A006D61696E3A206D32
:10268000326D5F776966695F696E69742063616C3A
:102690006C206572726F7221282564290D0A00571B
:1026A000692D46692049502069732025752E2575AE
:1026B0002E25752E25750D0A0057692D4669206453
:1026C0006973636F6E6E65637465640D0A005769A4
:1026D0002D466920636F6E6E65637465640D0A0034
:1026E000656464796D65736861636B006950686FD8
:1026F0006E65313300000601C16F410E0601C1193C
:10270000D8B485EF13F087EF13F090EF13F0540E69
:10271000C119D8A48EEF13F090EF13F0ACEF13F0C3
:1027200084C52AF585C52BF586C52CF587C52DF5FD
:10273000670E2E6E060E2F6E000E316E040E306E7A
:1027400095EC2EF00009D8A4A8EF13F0AAEF13F02F
:102750002EEF16F02EEF16F0420EC119D8A4B3EFEB
:1027600013F0B5EF13F0D3EF13F084C52AF585C548
:102770002BF586C52CF587C52DF56B0E2E6E060E36
:102780002F6E000E316E040E306E95EC2EF00009A7
:10279000D8A4CDEF13F0CFEF13F02EEF16F02EEFFD
:1027A00016F02EEF16F0430EC119D8A4DAEF13F08D
:1027B000DCEF13F069EF14F084C52AF585C52BF51D
:1027C00086C52CF587C52DF5B50E2E6E060E2F6E1F
:1027D000000E316E0C0E306E95EC2EF00009D8A470
:1027E000F4EF13F0F6EF13F02EEF16F00601BEBF74
:1027F000FCEF13F0FEEF13F055EF14F0BD510B0D8D
:10280000690EF324D96E070EF420DA6EBE510B0D5B
:10281000690EF324E16E070EF420E26EDFC4E7F4E4
:10282000BE510B0D680EF324D96E070EF420DA6E3C
:10283000010EDF6EF80E0501886FFF0E896F21EE25
:10284000BFF2610078F38AF5610074F38BF588516B
:102850008A2789518B230601BE510B0D660EF32486
:10286000D96E070EF420DA6E610028F6DEF46100FE
:102870002CF6DDF4DA4BDB2BDA51DB11D8A443EF75
:1028800014F045EF14F047EF14F0DA4BDB2BBE5198
:102890000B0D640EF324D96E070EF420DA6E61007E
:1028A00068FBDEF461006CFBDDF4BEC672F6000E60
:1028B000746F020E736FB7C675F6B8C676F6B9C6F2
:1028C00077F6BAC678F6BBC679F6BCC67AF62EEFAE
:1028D00016F0440EC119D8B470EF14F072EF14F072
:1028E0007BEF14F04B0EC119D8A479EF14F07BEFF5
:1028F00014F0C4EF14F084C52AF585C52BF586C500
:102900002CF587C52DF58B0E2E6E060E2F6E000E44
:10291000316E040E306E95EC2EF00009D8A493EFC2
:1029200014F095EF14F02EEF16F08BC60BF68CC654
:102930000CF606018C51D8A4A0EF14F0A2EF14F00D
:10294000D1EF13F0F80E0501886FFF0E896F21EEAD
:102950008DF2610078F38AF5610074F38BF588518C
:102960008A2789518B2306018B510B0D660EF324A8
:10297000D96E070EF420DA6E610028F6DEF46100ED
:102980002CF6DDF42EEF16F04A0EC119D8A4CBEFC9
:1029900014F0CDEF14F0E1EF14F084C52AF585C5ED
:1029A0002BF586C52CF587C52DF50D0E2E6E060E62
:1029B0002F6E000E316E440E306E95EC2EF02EEF21
:1029C00016F0460EC119D8B4E8EF14F0EAEF14F08F
:1029D000FCEF14F0480EC119D8B4F1EF14F0F3EF86
:1029E00014F0FCEF14F04D0EC119D8A4FAEF14F056
:1029F000FCEF14F0B1EF15F0060E0A6F480EC11986
:102A0000D8A405EF15F007EF15F009EF15F0090E42
:102A10000A6F000E526F100E516F84C52AF585C5DE
:102A20002BF586C52CF587C52DF5A50E2E6E060E49
:102A30002F6E51C630F552C631F595EC2EF00009D7
:102A4000D8A425EF15F027EF15F02EEF16F0000EA5
:102A50000601076F000E066FB1C66FF6B3C606F625
:102A6000B4C607F66F510B0D6A0EF324D96E070E2C
:102A7000F420DA6E000EDF6EADC670F6AEC671F6EB
:102A8000AFC603F6B0C604F6A7C697F6A8C698F672
:102A9000A9C699F6AAC69AF6ABC69BF6ACC69CF632
:102AA0006F510B0D640EF324D96E070EF420DA6E0D
:102AB0000651DE1807E10751DE18D8A462EF15F0C1
:102AC00064EF15F0D1EF13F071BF6FEF15F0715196
:102AD00008E17005D8A06FEF15F071EF15F0A7EFC2
:102AE00015F0050182510601705D05018351060153
:102AF0007159D8B07EEF15F080EF15F0A7EF15F003
:102B00000351050184270601045105018523000EA8
:102B10008623000E872370C651F671C652F68F0EBB
:102B20003A6E060E3B6E0AC63CF584C53DF585C57A
:102B30003EF586C53FF587C540F551C641F552C6FD
:102B400042F506016F51ACEC23F02EEF16F070C683
:102B500091F671C692F6000E8F6F000E906F2EEFF9
:102B600016F0450EC119D8B4B8EF15F0BAEF15F04C
:102B7000CCEF15F0470EC119D8B4C1EF15F0C3EF73
:102B800015F0CCEF15F04C0EC119D8A4CAEF15F012
:102B9000CCEF15F004EF16F0070E026F470EC119C7
:102BA000D8A4D5EF15F0D7EF15F0D9EF15F0080E32
:102BB000026F84C52AF585C52BF586C52CF587C51A
:102BC0002DF5830E2E6E060E2F6E000E316E080E42
:102BD000306E95EC2EF00009D8A4F1EF15F0F3EF6C
:102BE00015F02EEF16F0000E0601096F000E086FAB
:102BF00083C605F687C608F688C609F685C600F6B8
:102C000086C601F62EEF16F0520EC119D8A40BEFAE
:102C100016F00DEF16F02EEF16F084C52AF585C5D7
:102C20002BF586C52CF587C52DF5530E2E6E060E99
:102C30002F6E000E316E140E306E95EC2EF00009E2
:102C4000D8A425EF16F027EF16F02EEF16F0000EA1
:102C50000701436F000E446F000E456F120005011F
:102C6000696F0C0E286E000E296E0C0E2A6E000E77
:102C70002B6E000E2C6E000E2D6E000E2E6E000EB2
:102C80002F6EABEC36F08C0E286E100E296E000EF7
:102C90002A6E000E2B6E000E2C6E000E2D6E000E96
:102CA0002E6E000E2F6EABEC36F0AC0E286E070EBB
:102CB000296E020E2A6E000E2B6E000E2C6E000E78
:102CC0002D6E000E2E6E000E2F6EABEC36F0180E31
:102CD000486E110E496E000E4A6E000E4B6E010ECC
:102CE0004C6E000E4D6E000E4E6E000E4F6EE3ECFD
:102CF00031F00009D8B47FEF16F081EF16F084EFC1
:102D000016F0000E0AEF18F0000E486E140E496E11
:102D1000000E4A6E000E4B6E000E4C6E040E4D6E91
:102D2000000E4E6E000E4F6EE3EC31F00009D8B489
:102D30009CEF16F09EEF16F0A0EF16F081EF16F064
:102D4000140E426E100E436E000E446E000E456E61
:102D5000DBEC35F045AEAFEF16F0B1EF16F0A0EFBB
:102D600016F0BC0E426E070E436E020E446E000E4D
:102D7000456EDBEC35F042B0C0EF16F0C2EF16F056
:102D80000BEF17F0070E05016B6FD00E6A6FF1EFB6
:102D900016F0010E066E000E076E000E086E000E95
:102DA000096EAAEC38F00C0E426E000E436E0C0E4B
:102DB000446E000E456EDBEC35F09E0E42180DE1C0
:102DC000D00E43180AE1AD0E441807E1100E451865
:102DD000D8A4EDEF16F0EFEF16F0F1EF16F0FFEFDD
:102DE00016F005016A07D8A06B076A2906E16B296E
:102DF000D8A4FDEF16F0FFEF16F0C9EF16F00501AD
:102E00006A516B11D8A407EF17F009EF17F00BEF19
:102E100017F081EF16F0000E0501656F010E666F69
:102E2000000E676F000E686F6951D8B41AEF17F083
:102E30001CEF17F030EF17F0AC0E286E070E296E5E
:102E4000020E2A6E000E2B6E7D0E2C6ED50E2D6E90
:102E50001C0E2E6E3C0E2F6EABEC36F039EF17F0D9
:102E60006051D8B436EF17F038EF17F039EF17F09C
:102E7000658F8C0E286E100E296E000E2A6E000EC5
:102E80002B6E61C52CF562C52DF563C52EF564C5A5
:102E90002FF5ABEC36F056EC25F0FF0E4814586ECB
:102EA0000F0E4914596E000E4A145A6E000E4B1440
:102EB0005B6E5B505A100BE1A00E585C030E595824
:102EC000D8A065EF17F067EF17F069EF17F005016D
:102ED000658365C548F566C549F567C54AF568C5A2
:102EE0004BF5B4EC34F00C0E286E000E296E0C0E6F
:102EF0002A6E000E2B6E610E2C6E2F0E2D6E520E52
:102F00002E6EEF0E2F6EABEC36F0070E05016B6FD9
:102F1000D00E6A6FFAEF17F0020E066E000E076E03
:102F2000000E086E000E096EAAEC38F0050169511A
:102F3000D8A49DEF17F09FEF17F0DCEF17F08C0E81
:102F4000426E100E436E000E446E000E456EDBECBA
:102F500035F0360E42180DE1260E43180AE1530EE5
:102F6000441807E1020E4518D8A4B9EF17F0BBEFDB
:102F700017F0FAEF17F08C0E286E100E296E000E67
:102F80002A6E000E2B6E000E2C6E000E2D6E000EA3
:102F90002E6E000E2F6EABEC36F0F1EC34F0000923
:102FA000D8A4D5EF17F0D7EF17F0D9EF17F081EFCE
:102FB00016F0010E0AEF18F0AC0E426E070E436ECB
:102FC000020E446E000E456EDBEC35F0C30E421867
:102FD0000DE1C10E43180AE15D0E441807E1D70E5A
:102FE0004518D8A4F6EF17F0F8EF17F0FAEF17F03E
:102FF000D9EF17F005016A07D8A06B076A2906E127
:103000006B29D8A406EF18F008EF18F08CEF17F032
:1030100081EF16F012000501746F050165517F0BF9
:10302000846F74C583F5000E866F080E856F6A5134
:103030006B11D8B41EEF18F020EF18F02CEF18F039
:103040006C516E25706F6D516F21716F70518527B6
:103050007151862330EF18F0685185276951862316
:103060003D0E855D060E8659D8A039EF18F03BEF6E
:1030700018F03EEF18F0FF0EB1EF19F0F0EC37F05A
:103080000009D8B446EF18F048EF18F04AEF18F0EE
:103090003BEF18F0050174517B6F7C6B7D6B7E6B91
:1030A00065C570F5716B726B736B72C573F571C525
:1030B00072F570C571F5706B70517B1371517C1393
:1030C00072517D1373517E138551706F8651716FEC
:1030D000726B736B71C573F570C572F5716B706B44
:1030E00070517B1371517C1372517D1373517E1398
:1030F0008C0E286E100E296E000E2A6E000E2B6E9E
:103100007BC52CF57CC52DF57DC52EF57EC52FF52F
:10311000ABEC36F0780E286E100E296E000E2A6E7B
:10312000000E2B6E020E2C6E000E2D6E000E2E6EFB
:10313000000E2F6EABEC36F0000E05017F6F000E17
:10314000806F000E816F000E826F030E766FE80EA7
:10315000756FF4EF18F0780E426E100E436E000E8D
:10316000446E000E456E7B0E466E050E476E84EC77
:1031700037F03AEC3AF00009D8B4C1EF18F0C3EFD9
:1031800018F0C7EF18F05BEC37F03BEF18F00501D3
:103190007BB3CDEF18F0CFEF18F0DFEF18F0000E93
:1031A000426E040E436E150E446E000E456E7F0E89
:1031B000466E050E476E84EC37F002EF19F0F50EFF
:1031C000755D010E7659D8B0E8EF18F0EAEF18F007
:1031D000F4EF18F0010E066E000E076E000E086E7A
:1031E000000E096EAAEC38F005017507D8A0760725
:1031F000752906E17629D8A400EF19F002EF19F03D
:10320000ABEF18F03AEC3AF00009D8A40AEF19F045
:103210000CEF19F018EF19F005017F5180118111A1
:103220008211D8A416EF19F018EF19F01DEF19F05C
:103230005BEC37F0FD0EB1EF19F07FC577F580C577
:1032400078F581C579F582C57AF577C515F578C524
:1032500016F579C517F57AC518F5830E196E050EA2
:103260001A6E000E1C6E080E1B6E2FEC2EF0080E50
:1032700005017727000E782379237A236651671199
:10328000D8B445EF19F047EF19F059EF19F077C5A9
:1032900015F578C516F579C517F57AC518F566C51B
:1032A00019F567C51AF568C51BF569C51CF52FEC3E
:1032B0002EF005016A516B11D8B461EF19F063EF7C
:1032C00019F07DEF19F06E5177276F517823000EBA
:1032D0007923000E7A2377C515F578C516F579C5DB
:1032E00017F57AC518F56AC519F56BC51AF56CC5D9
:1032F0001BF56DC51CF52FEC2EF06C0E286E100E14
:10330000296E000E2A6E000E2B6E7FC570F580C5EB
:1033100071F581C572F582C573F5020ED89005016D
:103320007037713772377337E82E8EEF19F0020E4F
:1033300070112C6E71512D6E72512E6E73512F6E55
:10334000ABEC36F05BEC37F03AEC3AF00009D8B46D
:10335000ACEF19F0AEEF19F0B0EF19F03BEF18F049
:10336000000E120022C53AF523C53BF524C53CF5F5
:1033700025C53DF526C53EF527C53FF528C540F5D1
:1033800029C541F541BEC7EF19F0CAEF19F0010E8A
:10339000CBEF19F0000E386E396A38503910D8B4B6
:1033A000D4EF19F0D6EF19F0E6EF19F0411E401EE8
:1033B0003F1E3E1E3D1E3C1E3B1E3A6C000E3B2235
:1033C0003C223D223E223F22402241220601D7BF1D
:1033D000ECEF19F0EEEF19F0EFEF19F0D893D7BF3B
:1033E000FCEF19F0D75106E1D605D8B0FAEF19F085
:1033F000FCEF19F002EF1AF0000E356E010E346E7C
:1034000006EF1AF0D6C634F5D7C635F55DC736F5E2
:103410005EC737F538503910D8A411EF1AF013EF02
:103420001AF01AEF1AF0D8A518EF1AF01AEF1AF0DE
:103430001DEF1AF03606D8A03706000E436E1F0E99
:10344000426E000E08014C6FA2EF1AF04206D8A09F
:1034500043062D0E4224D96E080E4320DA6E3AC57B
:1034600003F53BC504F53CC505F53DC506F53EC570
:1034700007F53FC508F540C509F541C50AF50A0E2F
:103480000B6E000E0C6E000E0D6E000E0E6E000E1A
:103490000F6E000E106E000E116E000E126EA1EC7B
:1034A00027F003C52AF504C52BF505C52CF506C57F
:1034B0002DF507C52EF508C52FF509C530F50AC548
:1034C00031F52AC515F52CC516F511EC38F0155057
:1034D000300FDF6E3406D8A035063606D8A0370682
:1034E0003AC503F53BC504F53CC505F53DC506F5F4
:1034F0003EC507F53FC508F540C509F541C50AF5C4
:103500000A0E0B6E000E0C6E000E0D6E000E0E6E8F
:10351000000E0F6E000E106E000E116E000E126E79
:103520001BEC26F003C53AF504C53BF505C53CF593
:1035300006C53DF507C53EF508C53FF509C540F58B
:103540000AC541F543BEADEF1AF0435008E142040D
:10355000D8A0ADEF1AF0AFEF1AF0E0EF1AF03A5042
:103560003B103C103D103E103F1040104110D8A4BD
:10357000BCEF1AF0BEEF1AF026EF1AF035BECBEF13
:103580001AF0355006E13404D8B0C9EF1AF0CBEF89
:103590001AF026EF1AF037BED6EF1AF0375008E1CE
:1035A0003604D8A0D6EF1AF0D8EF1AF0E0EF1AF0F0
:1035B0000601D8B3DEEF1AF0E0EF1AF026EF1AF0AA
:1035C00038503910D8A4E7EF1AF0E9EF1AF0F1EF0C
:1035D0001AF00601D8A5EFEF1AF0F1EF1AF010EF8C
:1035E0001BF04206D8A0430638503910D8A4FBEF90
:1035F0001AF0FDEF1AF003EF1BF0000E336E2B0EE6
:10360000326E07EF1BF0000E336E2D0E326E2D0E54
:103610004224D96E080E4320DA6E6100C8F4DFF44C
:1036200020C515F521C516F52D0E4224176E080E7E
:103630004320186E36C519F537C51AF5FAEC2EF089
:1036400015C520F516C521F51200610018F5D9F44D
:1036500061001CF5DAF4DEC4F6F4DDC4F7F4000E04
:10366000F86E0800F550250AD8A439EF1BF03BEF9F
:103670001BF067EF1CF0610018F5D9F461001CF530
:10368000DAF4DE2A000EDD22000E07015E6F000E66
:103690005D6F5DC7D8F65EC7D9F60601D669D769F2
:1036A000610018F5D9F461001CF5DAF4DEC4F6F413
:1036B000DDC4F7F4000EF86E0800F550640AD8B4C3
:1036C00064EF1BF066EF1BF07CEF1BF0610018F558
:1036D000D9F461001CF5DAF4DEC4F6F4DDC4F7F4C5
:1036E000000EF86E0800F550690AD8A47AEF1BF0B6
:1036F0007CEF1BF0C7EF1BF0610018F5D9F46100F7
:103700001CF5DAF4DE2A000EDD22610020F5D9F482
:10371000610024F5DAF461007CF34AF5020EDE263E
:1037200061007CF34BF5000EDD22610028F5D9F431
:1037300061002CF5DAF4610078F360F5610074F350
:1037400061F50501000E61BFFF0E626F636F646F6C
:10375000656F666F676F44C520F545C521F560C587
:1037600022F561C523F562C524F563C525F564C559
:1037700026F565C527F566C528F567C529F5B2ECB8
:1037800019F020C544F521C545F588EF1CF061000E
:1037900018F5D9F461001CF5DAF4DEC4F6F4DDC4E2
:1037A000F7F4000EF86E0800F550750AD8A4DBEFA8
:1037B0001BF0DDEF1BF029EF1CF0610018F5D9F4C8
:1037C00061001CF5DAF4DE2A000EDD22610020F52E
:1037D000D9F4610024F5DAF461007CF34AF5020EB5
:1037E000DE2661007CF34BF5000EDD22610028F53A
:1037F000D9F461002CF5DAF4610078F34CF561003E
:1038000074F34DF54CC568F54DC569F505016A6B56
:103810006B6B6C6B6D6B6E6B6F6B44C520F545C548
:1038200021F568C522F569C523F56AC524F56BC580
:1038300025F56CC526F56DC527F56EC528F56FC550
:1038400029F5AAEC22F020C544F521C545F588EFFD
:103850001CF0610018F5D9F461001CF5DAF4DEC43F
:10386000F6F4DDC4F7F4000EF86E0800F550250AF2
:10387000D8A43DEF1CF03FEF1CF058EF1CF06100A6
:1038800018F5D9F461001CF5DAF4DE2A000EDD2209
:10389000000E066E250E056E44C507F545C508F5F4
:1038A00069EC34F0000E456E010E446E88EF1CF09A
:1038B000610018F5D9F461001CF5DAF4DE2A000E77
:1038C000DD22000E456E000E446E88EF1CF0610094
:1038D00018F5D9F461001CF5DAF4DEC4F6F4DDC4A1
:1038E000F7F4000EF86E0800F550056E066A44C540
:1038F00007F545C508F569EC34F0610018F5D9F411
:1039000061001CF5DAF4DE2A000EDD2252EF1CF015
:103910001200F10E0501DD6F21EE24F311EEFAF134
:10392000050EDBC4E3F4E806FCE2000EFA6F000EBD
:10393000FB6FCFC5FCF5D0C5FDF5D1C5FEF5D5C5EE
:10394000FFF5D751D8A4A7EF1CF0A9EF1CF0ADEFFD
:103950001CF0020EE26FAFEF1CF0000EE26F210EC2
:10396000D161B5EF1CF0B7EF1CF0C8EF1DF0D3EF3D
:103970001CF0D151FC25D86F000EFD21D96F6100DC
:1039800060F7F6F4610064F7F7F4000EF86E0800D3
:10399000F5500009D8A4CFEF1CF0D1EF1CF0D3EF05
:1039A0001CF0D1C5FEF5D107D129D8A4DAEF1CF05F
:1039B000DCEF1CF0B9EF1CF0C8EF1DF0FA0E8D6FB4
:1039C000050E8E6FE2517CEC36F00501DD6FE5EF00
:1039D0001DF0D351D411D8B4F0EF1CF0F2EF1CF06D
:1039E000E5EF1DF021EE2AF311EEE3F1040EDBC446
:1039F000E3F4E806FCE2D3C503F5D4C504F531ECE5
:103A000037F003C5DBF504C5DCF5400E0501DB1915
:103A1000DC11D8A40EEF1DF010EF1DF016EF1DF015
:103A2000D3C5E3F5D4C5E4F51CEF1DF0D3C5E5F52A
:103A3000D4C5E6F5DBC5E7F5FA0E876F050E886F8E
:103A4000E30E896F050E8A6FE251A4EC21F00501A7
:103A5000DD6FE5EF1DF0D351D411D8B432EF1DF076
:103A600034EF1DF0E5EF1DF0D3C5DEF5D4C5DFF56D
:103A70003BC7E8F53CC7E9F53DC7EAF53EC7EBF5BE
:103A8000020EDE25E86F000EDF21E96F010EDE2554
:103A9000D86F000EDF21D96F610060F7F6F4610086
:103AA00064F7F7F4000EF86E08006100D4F3DAF55D
:103AB000DA05EA6F610078F7F6F461007CF7F7F455
:103AC000000EF86E08006100D4F3EBF5FA0E876F74
:103AD000050E886FE80E896F050E8A6FE251DFECE4
:103AE00026F00501DD6FE5EF1DF0D351D411D8B4F8
:103AF0007CEF1DF07EEF1DF0E5EF1DF0D3C5E0F586
:103B0000D4C5E1F521EE00F311EEECF10D0EDBC4AE
:103B1000E3F4E806FCE2000EEC6F000EED6FE0C58A
:103B2000EEF5E1C5EFF5150EE025F06F000EE12191
:103B3000F16F000EF36F000EF26FE0C503F5E1C503
:103B400004F531EC37F003C5F4F504C5F5F5150EB1
:103B50000501E025036E000EE121046E31EC37F023
:103B600003C5F6F504C5F7F5000E0501F86F000E64
:103B7000F96FFA0E036E050E046EEC0E056E050E5F
:103B8000066EE2515AEC3AF00501DD6FE5EF1DF0EB
:103B9000D251D86FD96BD951000AD8B4D2EF1DF0E9
:103BA000E5EF1DF0D851010AD8B4DEEF1CF0030A8E
:103BB000D8B4E9EF1CF0010AD8B42BEF1DF0070AC6
:103BC000D8B475EF1DF0E5EF1DF0DD511200186E51
:103BD000F40E1B6E2C0E1024196E000E11201A6E9E
:103BE00012501310D8B4F7EF1DF0F9EF1DF038EFB5
:103BF0001FF020EE02F01250D9261350DA22DE50C8
:103C0000DE10D8B406EF1EF008EF1EF038EF1FF0FC
:103C100020EE04F01250D9261350DA22200EDF6471
:103C200014EF1EF016EF1EF018EF1EF038EF1FF025
:103C300014501510D8B41FEF1EF021EF1EF035EF11
:103C40001FF014C51CF515C51DF5040E14241E6EB9
:103C5000000E15201F6E14C503F515C504F5000EE2
:103C6000066E000E056E000E086E300E076E8EECAE
:103C700024F0610070F4D9F4610074F4DAF46100A6
:103C800064F4DEF4610068F4DDF459EF1EF020EE18
:103C900002F01C50D9261D50DA22000EDB8220EEE5
:103CA00002F01C50D9261D50DA22000EDB8072EF84
:103CB0001EF01850166E176A1750000AD8B463EF3A
:103CC0001EF038EF1FF01650000AD8B472EF1EF045
:103CD000010AD8B44FEF1EF0030AD8B447EF1EF024
:103CE00038EF1FF020EE05F01250D9261350DA22DB
:103CF000DE28D8A47EEF1EF080EF1EF090EF1EF0BD
:103D000020EE05F01250D9261350DA2210EE03F0FF
:103D10001C50E1261D50E222DFC4E7F4BCEF1EF088
:103D200020EE05F01250D9261350DA220F0EDF6074
:103D30009CEF1EF09EEF1EF038EF1FF020EE05F016
:103D40001250D9261350DA22DF50D8B4AAEF1EF051
:103D5000ACEF1EF038EF1FF020EE03F01C50D92618
:103D60001D50DA2210EE05F01250E1261350E22227
:103D7000E750166E1604DF6E0F50D8B4C2EF1EF077
:103D8000C4EF1EF038EF1FF0040E0F64CAEF1EF0F0
:103D9000CCEF1EF0CEEF1EF038EF1FF020EE28F033
:103DA0001E50D9261F50DA2261003CF4DFF420EEC9
:103DB00004F01250D9261350DA22610078F4E1F4AD
:103DC00061007CF4E2F4DFC4E7F4010E1E24036E0C
:103DD000000E1F20046E20EE02F01250D926135060
:103DE000DA22610078F305F5610074F306F520EE40
:103DF00004F01250D9261350DA22DF50166E1650F6
:103E0000076E086AA2EC35F0610048F4D9F461004D
:103E10004CF4DAF4DE50DE10D8B411EF1FF013EFDB
:103E20001FF033EF1FF020EE21F01E50D9261F5057
:103E3000DA22010EDF6E220E1E24036E000E1F20FA
:103E4000046E610048F4D9F461004CF4DAF46100C6
:103E500078F305F5610074F306F5000E086E060EA2
:103E6000076EA2EC35F0000E1B6E1B5039EF1FF0F1
:103E7000F10E1200D2EC39F00009D8A442EF1FF085
:103E800044EF1FF047EF1FF0000E7FEF20F0700EA1
:103E9000426E100E436E000E446E000E456EC20E52
:103EA000466E060E476E84EC37F00009D8B45BEF1F
:103EB0001FF05DEF1FF060EF1FF0F40E7FEF20F0BA
:103EC0000601C2B166EF1FF068EF1FF06AEF1FF046
:103ED0005DEF1FF0C291700E286E100E296E000E5D
:103EE0002A6E000E2B6EC2C62CF5C3C62DF5C4C6B5
:103EF0002EF5C5C62FF5ABEC36F00009D8B483EF2C
:103F00001FF085EF1FF087EF1FF05DEF1FF0C2C6B7
:103F1000F7F5C3C6F8F5C4C6F9F5C5C6FAF5030E3C
:103F200098EF1FF00501D890FA33F933F833F733DF
:103F3000E82E92EF1FF0FF0EF7150601DC6F0F0E53
:103F40000501F8150601DD6FDC51DD11D8A4ABEFDA
:103F50001FF0ADEF1FF0B0EF1FF0FE0E7FEF20F06F
:103F6000840E426E100E436E000E446E000E456EBF
:103F7000F00E466E060E476E84EC37F00009D8B49A
:103F8000C4EF1FF0C6EF1FF0C8EF1FF05DEF1FF08A
:103F9000F0C618F5F1C619F5F2C61AF5F3C61BF509
:103FA000C60E1C6E060E1D6E000E1F6E040E1E6EDB
:103FB000A1EC2AF00009D8B4E0EF1FF0E2EF1FF007
:103FC000E4EF1FF05DEF1FF00601C851DC5D050155
:103FD000F76F0601C951DD590501F86FF85109E184
:103FE000050EF75DD8A0F7EF1FF0F9EF1FF0FCEF1B
:103FF0001FF0FA0E7FEF20F00601C651D8B403EF90
:1040000020F005EF20F05DEF1FF0070EC6650BEF07
:1040100020F00DEF20F00FEF20F05DEF1FF0FD0E10
:104020000501F76FFF0EF86F0601C651030D610021
:10403000CCF3F9F56100D0F3FAF50501F751F92752
:10404000F851FA231F0EF925F66E260EFA21F76EA7
:10405000F86A000EF82202D85BEF20F00500FA6E35
:104060000900F550FD6E0900F550FE6E0900F5508F
:10407000FF6EFA50F80E0601C8250501826FFF0E8B
:104080000601C9210501836F080E0601F02505010F
:10409000846F000E0601F1210501856F000E0601F7
:1040A000F2210501866F000E0601F3210501876FDD
:1040B0000601C7511200010EE1EC38F0700E486E97
:1040C000100E496E000E4A6E000E4B6E020E4C6EC4
:1040D000000E4D6E000E4E6E000E4F6EE3EC31F092
:1040E000000EE1EC38F03AEC3AF00009D8B47BEF7E
:1040F00020F07DEF20F044EF1FF05DEF1FF0120085
:1041000005018C6F000E05018A6F080E8B6F33EF6F
:1041100021F0610028F6D9F461002CF6DAF48C5114
:10412000DE18D8A496EF20F098EF20F02FEF21F0C2
:1041300020EE01F08A51D9268B51DA22DE50DE10B2
:10414000D8B4A5EF20F0A7EF20F0CDEF20F084C584
:104150002AF585C52BF586C52CF587C52DF58D0E61
:104160002E6E050E2F6E20EE01F08A51D9268B514E
:10417000DA22610078F330F5610074F331F595ECE3
:104180002EF00009D8B4C7EF20F0C9EF20F0CDEF32
:1041900020F0A3EF21F0A3EF21F00601D351D411B9
:1041A000D511D8A4D6EF20F0D8EF20F0DAEF20F028
:1041B00042EF21F0050120EE01F08A51D9268B5102
:1041C000DA22DE50DE10D8B4E8EF20F0EAEF20F07B
:1041D00019EF21F0340E8C19D8A4F1EF20F0F3EF91
:1041E00020F0F5EF20F003EF21F0110E8C19D8A488
:1041F000FCEF20F0FEEF20F003EF21F0000E0601AF
:10420000E36F8DC55FF702D817EF21F00500FA6E56
:104210000601D351FD6ED451FE6ED551FF6EFA509A
:104220008D0E0501806F050E816F8C51120042EFDB
:1042300021F002D82DEF21F00500FA6E0601D351CE
:10424000FD6ED451FE6ED551FF6EFA50000E050181
:10425000806F000E816F8C51120042EF21F0030E2F
:104260008A27000E8B23610028F6D9F461002CF612
:10427000DAF43E0EDE18D8A440EF21F042EF21F030
:1042800089EF20F0200E05018C19D8A44AEF21F007
:104290004CEF21F0A3EF21F084C52AF585C52BF55D
:1042A00086C52CF587C52DF5F10E2E6E050E2F6EE9
:1042B000000E316E060E306E95EC2EF00009D8A47B
:1042C00064EF21F066EF21F0A3EF21F0060E050167
:1042D00084252A6E000E85212B6E000E86212C6E01
:1042E000000E87212D6EF1C52EF5F2C52FF5F3C511
:1042F00030F5F4C531F595EC2EF00009D8A483EF24
:1043000021F085EF21F0A3EF21F00601D351D41164
:10431000D511D8B48EEF21F090EF21F0CBEF20F043
:1043200002D8A3EF21F00500FA6ED351FD6ED451EF
:10433000FE6ED551FF6EFA50F10E0501806F050E2D
:10434000816F200E120012000601006FF10E0601AF
:10435000016F050189518A11D8B4B1EF21F0B3EF93
:1043600021F0A7EF22F0020E0F6E000E116E6C0E00
:10437000106E87C512F588C513F5020E146E060E71
:10438000156E06010051E7EC1DF00601016F0151A9
:10439000D8A4CDEF21F0CFEF21F0A7EF22F0320E1D
:1043A000036E060E046E000E066E000E056E000E05
:1043B000086E6C0E076E8EEC24F0610024F6D9F4C2
:1043C000610028F6DAF4DE50DE10D8B4EAEF21F00E
:1043D000ECEF21F043EF22F0050120EE02F08951CD
:1043E000D9268A51DA22DE50DE10D8B4FAEF21F055
:1043F000FCEF21F001EF22F0F10E0601016F82EFD8
:1044000022F0400E0601326F330E0B6E060E0C6E5C
:10441000610024F6D9F4610028F6DAF4610078F33B
:104420000DF5610074F30EF532C603F5046A000E53
:10443000066E020E056EC0EC2FF003500F6E8CEC72
:1044400032F00009D8B427EF22F029EF22F02CEF48
:1044500022F0F10E0601016F330E036E060E046E9C
:10446000610024F6D9F4610028F6DAF4610078F3EB
:1044700005F5610074F306F532C607F5086AA2EC8B
:1044800035F082EF22F0050120EE02F08951D926A5
:104490008A51DA22DE50DE10D8B451EF22F053EF09
:1044A00022F0FCEF21F020EE04F08951D9268A5148
:1044B000DA22400EDF645FEF22F061EF22F063EF5B
:1044C00022F0FCEF21F020EE04F08951D9268A5128
:1044D000DA22DF500601326F330E036E060E046ED1
:1044E000050120EE02F08951D9268A51DA226100B5
:1044F00078F305F5610074F306F532C607F5086A2E
:10450000A2EC35F006010151D8A489EF22F08BEF1F
:1045100022F0A7EF22F0BB0E0501656F020E666F59
:10452000060E676F000E696F300E686F320E6A6F8D
:10453000060E6B6F000E6D6F6C0E6C6F000E6F6F62
:10454000300E6E6F010E0BEC18F00601016F0601C4
:10455000015112000601D7BFB0EF22F0B2EF22F0F6
:10456000B3EF22F0D893D7BFC0EF22F0D75106E1C6
:10457000D605D8B0BEEF22F0C0EF22F0C6EF22F091
:10458000000E336E010E326ECAEF22F0D6C632F53F
:10459000D7C633F55DC734F55EC735F522C536F5A8
:1045A00023C537F524C538F525C539F526C53AF5AF
:1045B00027C53BF528C53CF529C53DF5000E3F6EE6
:1045C0001F0E3E6E000E08014C6F5DEF23F03E069D
:1045D000D8A03F062D0E3E24D96E080E3F20DA6E7D
:1045E00036C503F537C504F538C505F539C506F5F3
:1045F0003AC507F53BC508F53CC509F53DC50AF5C3
:104600000A0E0B6E000E0C6E000E0D6E000E0E6E7E
:10461000000E0F6E000E106E000E116E000E126E68
:10462000C7EC2DF003C52AF504C52BF505C52CF5FF
:1046300006C52DF507C52EF508C52FF509C530F5BA
:104640000AC531F52A50300FDF6E3206D8A0330686
:104650003406D8A0350636C503F537C504F538C588
:1046600005F539C506F53AC507F53BC508F53CC55E
:1046700009F53DC50AF50A0E0B6E000E0C6E000E14
:104680000D6E000E0E6E000E0F6E000E106E000E00
:10469000116E000E126E1CEC2BF003C536F504C52E
:1046A00037F505C538F506C539F507C53AF508C526
:1046B0003BF509C53CF50AC53DF53E503F10D8B461
:1046C00064EF23F066EF23F097EF23F036503710B6
:1046D000381039103A103B103C103D10D8A473EF3D
:1046E00023F075EF23F0E7EF22F033BE82EF23F0E3
:1046F000335006E13204D8B080EF23F082EF23F08C
:10470000E7EF22F035BE8DEF23F0355008E1340499
:10471000D8A08DEF23F08FEF23F097EF23F0060161
:10472000D8B395EF23F097EF23F0E7EF22F020C501
:1047300015F521C516F52D0E3E24176E080E3F20E7
:10474000186E34C519F535C51AF5FAEC2EF015C5F5
:1047500020F516C521F51200456E45500B0D600E73
:10476000F324486E070EF420496E41504210D8B42D
:10477000BCEF23F0BEEF23F08DEF24F0610020F5B5
:10478000D9F4610024F5DAF4DE50DE10D8B4CBEFB2
:1047900023F0CDEF23F08DEF24F020EE02F048500F
:1047A000D9264950DA22DE50DE10D8B4DAEF23F0F1
:1047B000DCEF23F08DEF24F020EE08F04850D926EE
:1047C0004950DA22DE04D8A4E8EF23F0EAEF23F020
:1047D0008DEF24F020EE04F03A50D9263B50DA2237
:1047E000610004F5DEF4610008F5DDF441C546F52D
:1047F00042C547F520EE02F04850D9264950DA224A
:104800004150DE5C4250DE58D8B009EF24F00BEF87
:1048100024F017EF24F020EE02F04850D92649503A
:10482000DA22610078F346F5610074F347F53DC57F
:104830002AF53EC52BF53FC52CF540C52DF5610089
:1048400020F5D9F4610024F5DAF4610078F32EF54F
:10485000610074F32FF546C530F547C531F595EC89
:104860002EF00009D8A437EF24F039EF24F08DEFB3
:1048700024F0610020F5D9F4610024F5DAF4610038
:10488000E8F4E1F46100ECF4E2F4DEC4E6F4DDC443
:10489000E5F420EE02F03A50D9263B50DA226100CE
:1048A00018F5DEF461001CF5DDF420EE04F03A505A
:1048B000D9263B50DA224650DE5E4750DD5A46503C
:1048C000415E4750425A46503D2647503E22000E18
:1048D0003F22000E402220EE08F04850D9264950D1
:1048E000DA22DF50D8A477EF24F079EF24F084EFB8
:1048F00024F041504210D8B480EF24F082EF24F02D
:1049000084EF24F08DEF24F041504210D8A48BEFB7
:1049100024F08DEF24F0F6EF23F0120003C50DF51F
:1049200004C50EF507500810D8A499EF24F09BEFAA
:1049300024F09DEF24F055EF25F0610034F4D9F414
:10494000610038F4DAF4610014F4DFF407500D2448
:10495000096E08500E200A6EFF0E0924D96EFF0E54
:104960000A20DA6E610014F4DFF4085007E1030E48
:10497000075CD8B0BEEF24F0C0EF24F0C2EF24F003
:1049800055EF25F020EE01F00D50D9260E50DA2219
:10499000610014F4DFF420EE02F00D50D9260E5021
:1049A000DA22610014F4DFF407500D24096E085078
:1049B0000E200A6EFE0E0924D96EFF0E0A20DA6E52
:1049C000610014F4DFF407500D24096E08500E2026
:1049D0000A6EFD0E0924D96EFF0E0A20DA6E610000
:1049E00014F4DFF4085007E1070E075CD8B0FBEFC2
:1049F00024F0FDEF24F0FFEF24F055EF25F020EE3A
:104A000003F00D50D9260E50DA22610014F4DFF4C1
:104A100007500D24096E08500E200A6EFC0E092462
:104A2000D96EFF0E0A20DA6E610014F4DFF408502C
:104A300007E1090E075CD8B020EF25F022EF25F042
:104A400024EF25F055EF25F00DC509F50EC50AF543
:104A5000091E0A1E094A0A2A030E09140B6E0C6A63
:104A60000B500D260C500E220B50075E0C50085AAE
:104A7000FC0E0716FF0E08164CEF25F0610034F40B
:104A8000D9F4610038F4DAF4610014F4DFF40706B5
:104A9000D8A008060D4A0E2A07500810D8A453EFD4
:104AA00025F055EF25F03EEF25F012000601F451F8
:104AB000F511F611F711D8B460EF25F062EF25F08B
:104AC0006CEF25F0F4C648F5F5C649F5F6C64AF58B
:104AD000F7C64BF51AEF26F0F40E426E130E436E36
:104AE000000E446E000E456E4C0E466E050E476E6F
:104AF00084EC37F00009D8B480EF25F082EF25F080
:104B00008CEF25F0000E486E000E496E000E4A6EC6
:104B1000000E4B6E1AEF26F0000E426E100E436E22
:104B2000000E446E000E456EF40E466E060E476E85
:104B300084EC37F00009D8B4A0EF25F0A2EF25F0FF
:104B4000A4EF25F082EF25F0A00E0601F4190BE189
:104B5000020EF51908E1100EF619F711D8A4B3EFFB
:104B600025F0B5EF25F0CCEF25F04C044D104E109C
:104B70004F10D8A4BEEF25F0C0EF25F0C2EF25F00E
:104B800008EF26F0A10EF46F020EF56F100EF66F0F
:104B9000000EF76F08EF26F0B00EF4190BE1020ECD
:104BA000F51908E1100EF619F711D8A4DAEF25F07F
:104BB000DCEF25F008EF26F0030E4C184D104E10D8
:104BC0004F10D8A4E6EF25F0E8EF25F0EAEF25F046
:104BD00008EF26F0040E4C184D104E104F10D8A4BC
:104BE000F4EF25F0F6EF25F000EF26F0B10EF46FAC
:104BF000020EF56F100EF66F000EF76F08EF26F03D
:104C0000B20EF46F020EF56F100EF66F000EF76F16
:104C1000FF0EF417FF0EF517F00EF617FF0EF7173D
:104C2000000EF413000EF513050EF613000EF71325
:104C300062EF25F01200000E146E12BE24EF26F073
:104C400022EF26F036EF26F0121E111E101E0F1E48
:104C50000E1E0D1E0C1E0B6C000E0C220D220E22C1
:104C60000F22102211221222010E146E0ABE3DEFF5
:104C700026F03BEF26F04FEF26F00A1E091E081E15
:104C8000071E061E051E041E036C000E04220522CC
:104C900006220722082209220A22010E141A21EEF6
:104CA00015F1070EDE6AE806FDE20B500C100D1040
:104CB0000E100F10101011101210D8B462EF26F061
:104CC00064EF26F0B6EF26F0010E136E72EF26F0B9
:104CD000D8900B360C360D360E360F361036113690
:104CE0001236132A12AE77EF26F079EF26F068EF2E
:104CF00026F0D890153616361736183619361A3665
:104D00001B361C360B50035C0C5004580D500558D4
:104D10000E5006580F500758105008581150095897
:104D200012500A58D8A097EF26F099EF26F0AAEF74
:104D300026F00B50035E0C50045A0D50055A0E50CD
:104D4000065A0F50075A1050085A1150095A12505B
:104D50000A5A1580D8901232113210320F320E32A8
:104D60000D320C320B32132E79EF26F01450D8B4DA
:104D7000BCEF26F0BEEF26F0CEEF26F01C1E1B1E69
:104D80001A1E191E181E171E161E156C000E16224E
:104D90001722182219221A221B221C2215C503F5DC
:104DA00016C504F517C505F518C506F519C507F5A7
:104DB0001AC508F51BC509F51CC50AF51200050141
:104DC0008D6FF10E05018E6F89518A11D8B4EBEF0A
:104DD00026F0EDEF26F09FEF27F0610024F6D9F4DE
:104DE000610028F6DAF4DE50DE10D8B4FAEF26F0CF
:104DF000FCEF26F09FEF27F020EE03F08951D92633
:104E00008A51DA22DF50D8B408EF27F00AEF27F0F2
:104E10009FEF27F020EE03F08951D9268A51DA223C
:104E2000050EDF6016EF27F018EF27F09FEF27F051
:104E300020EE02F08951D9268A51DA221A0EDE18A4
:104E4000D8B425EF27F027EF27F036EF27F020EE34
:104E500002F08951D9268A51DA220A0EDE18D8A426
:104E600034EF27F036EF27F09FEF27F0030E0F6E99
:104E7000000E116E100E106E87C512F588C513F561
:104E80009F0E146E050E156E8D51E7EC1DF0050199
:104E90008E6F8E51D8A44FEF27F051EF27F09FEF80
:104EA00027F020EE03F08951D9268A51DA22DF500B
:104EB0008B6F8B058F6F20EE02F08951D9268A51B6
:104EC000DA22DF508B6F8B51036E046A000E066E80
:104ED000020E056EC0EC2FF003500501906F910E8D
:104EE0000B6E050E0C6E610024F6D9F4610028F6F5
:104EF000DAF4610078F30DF5610074F30EF590C5F6
:104F00000FF58CEC32F0BB0E0501656F9F0E666FDE
:104F1000050E676F000E696F300E686F8F0E6A6F37
:104F2000050E6B6F000E6D6F100E6C6F000E6F6FC5
:104F3000300E6E6F010E0BEC18F005018E6F8E5166
:104F40001200000E146E0ABEAAEF27F0A8EF27F099
:104F5000BCEF27F00A1E091E081E071E061E051EAE
:104F6000041E036C000E04220522062207220822DA
:104F700009220A22010E146E12BEC3EF27F0C1EF00
:104F800027F0D3EF27F0121E111E101E0F1E0E1E4B
:104F90000D1E0C1E0B6C000E0C220D220E220F2279
:104FA0001022112212220B500C100D100E100F1097
:104FB000101011101210D8B4E0EF27F0E2EF27F034
:104FC0002AEF28F0010E136EF0EF27F0D8900B3681
:104FD0000C360D360E360F36103611361236132AB1
:104FE00012AEF5EF27F0F7EF27F0E6EF27F00B50C2
:104FF000035C0C5004580D5005580E5006580F50C5
:105000000758105008581150095812500A58D8A083
:105010000CEF28F00EEF28F01EEF28F00B50035E87
:105020000C50045A0D50055A0E50065A0F50075A8C
:105030001050085A1150095A12500A5AD890123278
:10504000113210320F320E320D320C320B32132E5F
:10505000F7EF27F01450D8B430EF28F032EF28F0F3
:1050600042EF28F00A1E091E081E071E061E051E16
:10507000041E036C000E04220522062207220822C9
:1050800009220A2203C503F504C504F505C505F583
:1050900006C506F507C507F508C508F509C509F5EC
:1050A0000AC50AF512001B501A1006E11904D8B0FF
:1050B0005CEF28F05EEF28F06BEF28F0C40E3E6E38
:1050C000800E3F6E1AC51BF519C51AF518C519F5DE
:1050D000186A6FEF28F0CA0E3E6E1AC53FF519C563
:1050E00040F518C541F53E0E116E050E126E040E08
:1050F000136E47EC36F00009D8B481EF28F083EF47
:1051000028F086EF28F0010EF7EF28F03A0E116E26
:10511000050E126E000E146E040E136E1CEC34F0AD
:105120000009D8B496EF28F098EF28F09AEF28F00D
:1051300083EF28F03DC51EF51F6A206A216A1EC54F
:1051400021F5206A1F6A1E6A3CC522F5236A246A7B
:10515000256A23C525F522C524F5236A226A3BC5A5
:1051600026F5276A286A296A28C529F527C528F55A
:1051700026C527F5266A3AC52AF52B6A2C6A2D6AB8
:1051800026502A102E6E27502B102F6E28502C10D0
:10519000306E29502D10316E22502E10326E235059
:1051A0002F10336E24503010346E25503110356E70
:1051B0001E503210366E1F503310376E2050341090
:1051C000386E21503510396E610070F4D9F46100E9
:1051D00074F4DAF46100D8F4DEF46100DCF4DEF497
:1051E0006100E0F4DEF46100E4F4DEF4000E12008D
:1051F00003500410D8A4FFEF28F001EF29F004EFCA
:1052000029F0F10E96EF29F020EE05F00350D92693
:105210000450DA22DF500F0B056E066A053A063A93
:10522000F00E061605500F0B0612F00E051620EEB6
:1052300004F00350D9260450DA22DF50076E0750DD
:10524000096E086A055008120650091220EE06F091
:105250000350D9260450DA22DF500A6E0F0E0A16C8
:105260000A5008100D6E09500E6E20EE08F0035023
:10527000D9260450DA22DF500F0B056E066A053A74
:10528000063AF00E061605500F0B0612F00E051624
:1052900020EE07F00350D9260450DA22DF50076EC3
:1052A0000750096E086A055008120650091220EED0
:1052B00009F00350D9260450DA22DF500A6E0F0E8F
:1052C0000A160A5008100B6E09500C6E0D500E1085
:1052D000D8B46DEF29F06FEF29F001EF29F00B50F2
:1052E0000C10D8A476EF29F078EF29F07AEF29F0A6
:1052F00001EF29F0620E0B5C130E0C58D8A083EF5F
:1053000029F085EF29F088EF29F0F30E96EF29F0C8
:10531000610E0D5C130E0E58D8B091EF29F093EF8B
:1053200029F095EF29F085EF29F0000E12001D0EEF
:10533000266E050E276E17501610151007E1310E58
:10534000145CD8B0A6EF29F0A8EF29F0B4EF29F04B
:10535000C30E1D6E800E1E6E070E256E020E2626D3
:10536000000E2722C0EF29F0C90E1D6E16C51EF5CE
:1053700015C51FF5080E256E030E2626000E2722E2
:10538000610098F4D9F461009CF4DAF4610050F4FF
:10539000DFF420EE01F02650D9262750DA226100F2
:1053A0006CF4DFF420EE02F02650D9262750DA22E2
:1053B000610068F4DFF420EE03F02650D926275070
:1053C000DA22610064F4DFF420EE04F02650D926DE
:1053D0002750DA22610060F4DFF41C50D8B4F3EFF8
:1053E00029F0F5EF29F008EF2AF01D0E116E050ED9
:1053F000126E25C513F547EC36F00009D8B403EF5B
:105400002AF005EF2AF01BEF2AF0010E1CEF2AF01C
:105410001D0E0A6E050E0B6E25C50CF50D6A80EC8F
:1054200033F00009D8A417EF2AF019EF2AF01BEF88
:105430002AF005EF2AF0000E1200566E8BEF2AF0CC
:1054400080C557F581C558F561005CF5D9F4610058
:1054500060F5DAF4DE04D8A430EF2AF032EF2AF057
:105460003BEF2AF0CE0E0501766F260E776F53ECD8
:1054700039F0A0EF2AF061005CF5D9F4610060F525
:10548000DAF4DF50D8A447EF2AF049EF2AF0A0EF72
:105490002AF0B90E0501766F260E776F53EC39F0BE
:1054A000A0EF2AF080C559F581C55AF59F0E050178
:1054B000766F260E776F610064F5D9F4610068F5A8
:1054C000DAF4DF50526E5250786F796B20EE01F0B3
:1054D0005950D9265A50DA22DF50536E53507A6F02
:1054E0007B6B20EE02F05950D9265A50DA22DF5059
:1054F000546E54507C6F7D6B20EE03F05950D926CA
:105500005A50DA22DF50556E55507E6F7F6B53EC48
:1055100039F0A0EF2AF05650526E536A5350000AE9
:10552000D8B495EF2AF0A0EF2AF052502C0AD8B444
:1055300020EF2AF01E0AD8B452EF2AF0A0EF2AF08A
:10554000120021EEE1F311EE23F1060EDBC4E3F4C9
:10555000E806FCE25D50D8B4B0EF2AF0B2EF2AF0D2
:10556000B5EF2AF0010E1BEF2BF0010E5D6E1AC590
:1055700024F519C525F518C526F5000E276E1E045D
:105580001F10D8A4C6EF2AF0C8EF2AF0CEEF2AF0F9
:10559000000E286E020E296ED2EF2AF01F50286EE0
:1055A0001EC529F5230E116E050E126E070E136E21
:1055B00047EC36F00009D8B4E0EF2AF0E2EF2AF029
:1055C000E4EF2AF0B2EF2AF01E041F10D8A4EBEF8C
:1055D0002AF0EDEF2AF003EF2BF0200E116E050EEE
:1055E000126E000E146E020E136E1CEC34F0226E5E
:1055F000610070F4D9F4610074F4DAF4610080F4AD
:10560000DFF40EEF2BF01CC511F51DC512F51EC5FC
:1056100013F51FC514F51CEC34F0226E2250D8B4DB
:1056200014EF2BF016EF2BF018EF2BF0B2EF2AF05F
:10563000000E5D6E000E120021EE13F1070EDE6A01
:10564000E806FDE20B500C100D100E100F1010109C
:1056500011101210D8B42FEF2BF031EF2BF083EF95
:105660002BF0010E1B6E3FEF2BF0D8900B360C3653
:105670000D360E360F361036113612361B2A12AE84
:1056800044EF2BF046EF2BF035EF2BF0D89013368C
:105690001436153616361736183619361A360B5094
:1056A000035C0C5004580D5005580E5006580F500E
:1056B0000758105008581150095812500A58D8A0CD
:1056C00064EF2BF066EF2BF077EF2BF00B50035EBF
:1056D0000C50045A0D50055A0E50065A0F50075AD6
:1056E0001050085A1150095A12500A5A1380D89073
:1056F0001232113210320F320E320D320C320B32A6
:105700001B2E46EF2BF013C503F514C504F515C584
:1057100005F516C506F517C507F518C508F519C529
:1057200009F51AC50AF512000501606F58505910A5
:10573000D8A49DEF2BF09FEF2BF0A2EF2BF0F10EF2
:105740000AEF2CF058C503F559C504F5000E066E96
:10575000000E056E000E086E260E076E8EEC24F00D
:1057600037EC31F0FF0E48140501616FFF0E49144C
:10577000626F000E4A14636F000E4B14646F615128
:10578000621163116411D8A4C8EF2BF0CAEF2BF09B
:10579000CDEF2BF0F40E0AEF2CF06051D8B4D3EF1C
:1057A0002BF0D5EF2BF0DFEF2BF0FF0E6117FF0E84
:1057B0006217000E6317000E6417E9EF2BF0100E4E
:1057C0005A6ED89064336333623361335A2EE1EFFB
:1057D0002BF0000E6111186E000E6211196E030E8F
:1057E00063111A6E000E64111B6E58C51CF559C565
:1057F0001DF5000E1F6E260E1E6EA1EC2AF000098C
:10580000D8B405EF2CF007EF2CF009EF2CF0CAEF1D
:105810002BF0000E12000B0E486E000E496E000EAB
:105820004A6E000E4B6E010E4C6E000E4D6E000E59
:105830004E6E000E4F6EE3EC31F0010E486E000E1E
:10584000496E000E4A6E000E4B6E020E4C6E000E3C
:105850004D6E000E4E6E000E4F6EE3EC31F03AECE2
:105860003AF00009D8B437EF2CF039EF2CF03CEFC8
:105870002CF0000E7EEF2CF0040E0501606F70EF2F
:105880002CF00F0E426E000E436E000E446E000EA2
:10589000456E610E466E050E476E84EC37F00009CA
:1058A000D8B455EF2CF057EF2CF059EF2CF039EF1E
:1058B0002CF0050161A55FEF2CF061EF2CF066EF95
:1058C0002CF0F5EC39F0010E7EEF2CF0020E066E96
:1058D000000E076E000E086E000E096EAAEC38F07E
:1058E000050160076029D8A478EF2CF07AEF2CF03E
:1058F00041EF2CF0F5EC39F039EF2CF01200046E8A
:10590000000184BF86EF2CF088EF2CF0EEEF2CF036
:105910000450050D340EF324F66E260EF420F76EB7
:10592000F86A000EF8220800F5C484F00450050D52
:10593000010EF326000EF422340EF324F66E260E2A
:10594000F420F76EF86A000EF8220800F5C485F01E
:105950000450050D020EF326000EF422340EF3243B
:10596000F66E260EF420F76EF86A000EF822080094
:10597000F5500309866F000E8C6F0450050D030E61
:10598000F326000EF422340EF324F66E260EF420D5
:10599000F76EF86A000EF8220800F5C489F004508A
:1059A000050D040EF326000EF422340EF324F66ED9
:1059B000260EF420F76EF86A000EF8220800610047
:1059C000D4F303F5033A03460346C8500318BF0B4C
:1059D0000318C86E848F010EEFEF2CF0000E12003A
:1059E000000EC26E400EC16E000EBE6E010EC36E82
:1059F000000EBF6E000EC06E070ECA6EFE0ECB6E9E
:105A0000C668C7682F0EC86E1F0EC96E1F0E040130
:105A1000186F1F0E106F0869070E206FFC0E286F9D
:105A2000BF0E006F000E196F000E296F000E216F60
:105A3000000E096FC00E016F000E116F000E020103
:105A4000896F000E886F000E876F000E866F000E44
:105A50000401226F000E2A6F000E026F000E0A6F03
:105A6000000E126F000E1A6F3F0E036F0B697F0E50
:105A7000136F1F0E1B6F070E236F2B6904690C69D0
:105A800014691C690F0E246F2C69079D068D059DF6
:105A9000C00E036E740E046E000E056E2EEC3AF00E
:105AA0009E8E160E02016A6F320E156F310E176F41
:105AB000200E296F290E726F150E6B6F1200586E33
:105AC00050EC3AF00009D8A468EF2DF06AEF2DF001
:105AD0006DEF2DF0010EC6EF2DF056EC3AF054ECC0
:105AE0003AF0320E066E000E076E000E086E000EC3
:105AF000096EAAEC38F058EC3AF00A0E066E000E69
:105B0000076E000E086E000E096EAAEC38F052EC1B
:105B10003AF00A0E066E000E076E000E086E000EBA
:105B2000096EAAEC38F0EAEC39F00009D8B49BEF22
:105B30002DF09DEF2DF09FEF2DF06AEF2DF05850D6
:105B4000D8B4A5EF2DF0A7EF2DF0C5EF2DF02CEC7C
:105B500035F00009D8A4AFEF2DF0B1EF2DF0B3EF81
:105B60002DF06AEF2DF0000E286E030E296E020E46
:105B70002A6E000E2B6E000E2C6E000E2D6E000E87
:105B80002E6E000E2F6EABEC36F0000E12000B5096
:105B90000C100D100E100F10101011101210D8B4A0
:105BA000D4EF2DF0D6EF2DF01EEF2EF0010E136E78
:105BB000E4EF2DF0D8900B360C360D360E360F363E
:105BC000103611361236132A12AEE9EF2DF0EBEF34
:105BD0002DF0DAEF2DF00B50035C0C5004580D50F3
:105BE00005580E5006580F500758105008581150BD
:105BF000095812500A58D8A000EF2EF002EF2EF0EC
:105C000012EF2EF00B50035E0C50045A0D50055A43
:105C10000E50065A0F50075A1050085A1150095A80
:105C200012500A5AD8901232113210320F320E32FC
:105C30000D320C320B32132EEBEF2DF003C503F5B2
:105C400004C504F505C505F506C506F507C507F540
:105C500008C508F509C509F50AC50AF5120021EEBF
:105C6000E8F311EE1DF1060EDBC4E3F4E806FCE2F6
:105C70005D50D8B43EEF2EF040EF2EF043EF2EF003
:105C8000010E94EF2EF0010E5D6E1B041C10D8A4C3
:105C90004CEF2EF04EEF2EF052EF2EF0000E1C6E59
:105CA000020E1B6E17C51EF516C51FF515C520F58E
:105CB000000E216E1C50226E1BC523F51D0E116EA9
:105CC000050E126E070E136E47EC36F00009D8B4BD
:105CD0006CEF2EF06EEF2EF070EF2EF040EF2EF006
:105CE00019C50EF51AC50FF51BC510F51CC511F524
:105CF00022EC30F00009D8B480EF2EF082EF2EF0C5
:105D000084EF2EF040EF2EF0C30E5DEC2FF0000973
:105D1000D8B48DEF2EF08FEF2EF091EF2EF040EFF4
:105D20002EF0000E5D6E000E120030500601DC5D9C
:105D30003150DD59D8B09FEF2EF0A1EF2EF0A4EF37
:105D40002EF0F40EF9EF2EF0F0512A5CF1512B58A1
:105D5000F2512C58F3512D58D8A0B1EF2EF0B3EFDB
:105D60002EF0A1EF2EF030502A24326E31502B202D
:105D7000336E000E2C20346E000E2D20356EDC515B
:105D8000F025366EDD51F121376E000EF221386EAE
:105D9000000EF321396E3250365C33503758345090
:105DA000385835503958D8B0D8EF2EF0DAEF2EF0F9
:105DB000DCEF2EF0A1EF2EF02AC518F52BC519F552
:105DC0002CC51AF52DC51BF52EC51CF52FC51DF5C7
:105DD00030C51EF531C51FF5A1EC2AF00009D8B475
:105DE000F4EF2EF0F6EF2EF0F8EF2EF0A1EF2EF0FC
:105DF000000E12000601D8A100EF2FF002EF2FF0E5
:105E00000CEF2FF017C50EF518C50FF515C510F5D9
:105E100016C511F5ADEC37F01ABE11EF2FF013EFE8
:105E20002FF019EF2FF019C51EF51AC51FF51DEF3C
:105E30002FF0000E1F6E000E1E6E000E1D6E000E67
:105E40001C6E2FEF2FF0000E066E200E056E15C58E
:105E500007F516C508F569EC34F01C4A1D2A1E50DA
:105E60001C5C1D50800A1B6E1F50800A1B58D8A056
:105E70003CEF2FF03EEF2FF023EF2FF00601D8B1CB
:105E800044EF2FF046EF2FF050EF2FF017C50EF52F
:105E900018C50FF515C510F516C511F5ADEC37F0A1
:105EA00017C503F518C504F531EC37F01E5003246F
:105EB000156E1F500420166E12000F6E0A0E0E6E25
:105EC000100E0A6E050E0B6E000E0D6E010E0C6E9E
:105ED000CEEC33F00009D8A470EF2FF072EF2FF062
:105EE00075EF2FF0FF0EBFEF2FF0F00E0F18D8A4B4
:105EF0007CEF2FF07EEF2FF08CEF2FF01050F00B97
:105F0000F00AD8A486EF2FF088EF2FF08CEF2FF057
:105F10001050F00BBFEF2FF00F501018D8A493EFD4
:105F20002FF095EF2FF0ACEF2FF0100E0A6E050E4C
:105F30000B6E000E0D6E010E0C6ECEEC33F00009F0
:105F4000D8A4A5EF2FF0A7EF2FF0A9EF2FF072EF55
:105F50002FF01050BFEF2FF01050D8A4B2EF2FF059
:105F6000B4EF2FF072EF2FF00E060E28D8A4BBEF7F
:105F70002FF0BDEF2FF060EF2FF072EF2FF0120037
:105F8000000E086E06BEC9EF2FF0C7EF2FF0CFEF5F
:105F90002FF0056C061ED8B0062A010E086E04BE4E
:105FA000D6EF2FF0D4EF2FF0DCEF2FF0036C041EB0
:105FB000D8B0042A010E081A000E0A6E000E096EEF
:105FC00005500610D8B4E7EF2FF0E9EF2FF011EFEE
:105FD00030F0010E076EF1EF2FF0D890053606363F
:105FE000072A06AEF6EF2FF0F8EF2FF0EDEF2FF0C7
:105FF000D89009360A360550035C06500458D8A0DC
:1060000004EF30F006EF30F00BEF30F00550035E98
:106010000650045A0980D89006320532072EF8EF50
:106020002FF00850D8B417EF30F019EF30F01DEF13
:1060300030F0096C0A1ED8B00A2A09C503F50AC552
:1060400004F51200F10E126E78EF30F01004200EFD
:106050001158D8B02EEF30F030EF30F036EF30F08E
:1060600010C513F511C514F53AEF30F0200E146E7B
:10607000000E136E1350105E1450115A1050111070
:10608000D8A445EF30F047EF30F049EF30F0F30E91
:10609000126E120E0A6E050E0B6E000E0D6E010EC4
:1060A0000C6E80EC33F00009D8A459EF30F05BEFB0
:1060B00030F05EEF30F0010E82EF30F00EC50AF5E1
:1060C0000FC50BF513C50CF514C50DF580EC33F0B9
:1060D0000009D8A46EEF30F070EF30F072EF30F0BE
:1060E0005BEF30F0F20E126E13500E2614500F229A
:1060F00010501110D8A47FEF30F081EF30F026EF70
:1061000030F0000E12003AEC3AF00009D8B48BEFF0
:1061100030F08DEF30F090EF30F0000EDFEF30F028
:10612000100E426E000E436E000E446E000E456E61
:10613000580E466E050E476E84EC37F00009D8B451
:10614000A4EF30F0A6EF30F0A8EF30F08DEF30F094
:1061500058B0ADEF30F0AFEF30F090EF30F0010E0F
:10616000486E000E496E000E4A6E000E4B6E020E17
:106170004C6E000E4D6E000E4E6E000E4F6E8DEC8E
:1061800031F00B0E486E000E496E000E4A6E000E86
:106190004B6E010E4C6E000E4D6E000E4E6E000EDC
:1061A0004F6E8DEC31F03AEC3AF00009D8B4DBEFE9
:1061B00030F0DEEF30F0010EDFEF30F0000E1200B5
:1061C000B8EC39F0ABEC39F04E0E036E080E046EED
:1061D000000E066E000E056E000E086E0E0E076EA7
:1061E0008EEC24F03A0E08014E6F540E4F6F000EE5
:1061F000506F4E0E05019B6F080E9C6F27EC39F017
:1062000008014D6F4D51D8B408EF31F00AEF31F06D
:106210001AEF31F0790E0501766F260E776F0801BF
:106220004D510501786F796B78BF790753EC39F0E0
:1062300018EF31F0EC0E06019E6F260E9F6F090ECF
:10624000A06F020EA16FE00EA26F260EA36F000ECC
:10625000A56FA4693DEC39F0000E0601CA6F000E6F
:10626000CB6F45EC3AF02CEF31F00DEF00F0080E5B
:10627000426E000E436E0C0E446E000E456E540EC0
:10628000466E050E476E84EC37F00009D8B44BEF2C
:1062900031F04DEF31F057EF31F0000E486E000E47
:1062A000496E000E4A6E000E4B6E8CEF31F054506A
:1062B000551056105710D8A460EF31F062EF31F04E
:1062C00064EF31F04DEF31F0000E5410186E000EF7
:1062D0005510196E030E56101A6E000E57101B6ED5
:1062E0004C0E1C6E050E1D6E000E1F6E080E1E6EEF
:1062F000A1EC2AF00009D8B480EF31F082EF31F040
:1063000084EF31F04DEF31F050C548F551C549F5F6
:1063100052C54AF553C54BF5120048C542F549C56B
:1063200043F54AC544F54BC545F5540E466E050E7A
:10633000476E84EC37F04C505414506E4D50551449
:10634000516E4E505614526E4F505714536E50505B
:10635000511052105310D8B4B0EF31F0B2EF31F009
:10636000D4EF31F04C1C506E4D1C516E4E1C526ED1
:106370004F1C536E505054165150551652505616CD
:106380005350571648C528F549C529F54AC52AF579
:106390004BC52BF554C52CF555C52DF556C52EF519
:1063A00057C52FF5ABEC36F03AEC3AF00009D8B40B
:1063B000DCEF31F0DEEF31F0E1EF31F0010EE2EF32
:1063C00031F0000E120048C542F549C543F54AC5F3
:1063D00044F54BC545F5540E466E050E476E84ECEC
:1063E00037F04C505414506E4D505514516E4E5061
:1063F0005614526E4F505714536E4C5050180FE1B4
:106400004D5051180CE14E50521809E14F5053189D
:10641000D8B40DEF32F00FEF32F029EF32F04C50DC
:1064200054124D5055124E5056124F50571248C5E7
:1064300028F549C529F54AC52AF54BC52BF554C59C
:106440002CF555C52DF556C52EF557C52FF5ABECDA
:1064500036F03AEC3AF00009D8B431EF32F033EFCD
:1064600032F036EF32F0010E37EF32F0000E12004C
:10647000200EF66E720EF76E000EF86E02EE00F051
:1064800010EE2DF00900F5C4EEF4E550E150FAE10C
:10649000160EF66E740EF76E000EF86E01EEE1F356
:1064A00010EE0EF00900F5C4EEF4E550E150FAE10B
:1064B000C20EF66E740EF76E000EF86E09006100E3
:1064C000D4F3F8F6BC0EF66E740EF76E000EF86E8E
:1064D00009006100D4F35CF509006100D4F35DF5B7
:1064E00002EE2DF0200EEE6AE806FDE101EE00F36B
:1064F000E10EEE6AE806FDE101EECCF22C0EEE6A4A
:10650000E806FDE10401080E5D6F000E5E6F000EEF
:106510005F6F0001E0EF30F0D5EF32F0610034F44E
:10652000F6F4610038F4F7F4000EF86E0800F55048
:1065300051EC38F0106E0D4A0E2A0F0E1064A3EFC6
:1065400032F0A5EF32F0A8EF32F0F10EDFEF32F0CB
:106550001050100D61002CF4D9F4610030F4DAF41D
:10656000F3C4DFF4610034F4F6F4610038F4F7F4B6
:10657000000EF86E0800F55051EC38F0106E0D4A20
:106580000E2A0F0E1064C7EF32F0C9EF32F0CBEFD6
:1065900032F0A5EF32F061002CF4D9F4610030F450
:1065A000DAF41050DF260B4A0C2A0F060F28D8A465
:1065B000DCEF32F0DEEF32F08EEF32F0000E120040
:1065C000050172517311D8A4E8EF32F0EAEF32F00E
:1065D000EDEF32F0F10E31EF33F06100C8F5D9F490
:1065E0006100CCF5DAF4610078F3D3F6610078F35A
:1065F000D4F6610074F3D5F6000E0601E36F000EC9
:1066000005016C6F610E6D6F130E6E6F300E6F6F44
:10661000130E706F000ECFEC37F00009D8B413EFF3
:1066200033F015EF33F018EF33F0FB0E31EF33F0AA
:10663000020E0601E46F12EC3AF00009D8B423EF21
:1066400033F025EF33F027EF33F015EF33F0750E0D
:106650000501656F050E666FDAEC36F00501746FA3
:1066600074511200566E6EEF33F080C557F581C538
:1066700058F54C0E0501766F260E776F61005CF5BC
:10668000D9F4610060F5DAF4DF50526E5250786F41
:10669000796B20EE01F05750D9265850DA22DF509E
:1066A000536E53507A6F7B6B20EE02F05750D92611
:1066B0005850DA22DF50546E54507C6F7D6B20EEC0
:1066C00003F05750D9265850DA22DF50556E5550F6
:1066D0007E6F7F6B53EC39F07FEF33F05650526E84
:1066E000536A5350000AD8B478EF33F07FEF33F099
:1066F0005250320AD8B435EF33F07FEF33F0120046
:10670000040EF66E260EF76E000EF86E02D896EFA7
:1067100033F00500FA6E0900F550FD6E0900F550E2
:10672000FE6E0900F550FF6EFA501200C19C0AC5BA
:1067300004F50BC505F50CC506F50DC507F50D0EE1
:10674000F66E260EF76E000EF86E02D8B5EF33F037
:106750000500FA6E0900F550FD6E0900F550FE6E59
:106760000900F550FF6EFA501200C18C010EF66E52
:10677000260EF76E000EF86E02D8CCEF33F005004F
:10678000FA6E0900F550FD6E0900F550FE6E090025
:10679000F550FF6EFA501200010E1200040EF66E54
:1067A000260EF76E000EF86E02D8E4EF33F0050007
:1067B000FA6E0900F550FD6E0900F550FE6E0900F5
:1067C000F550FF6EFA501200C19C0AC504F50BC5C6
:1067D00005F50CC506F50DC507F5100EF66E260E6F
:1067E000F76E000EF86E02D803EF34F00500FA6E73
:1067F0000900F550FD6E0900F550FE6E0900F550D8
:10680000FF6EFA501200C18C010EF66E260EF76E66
:10681000000EF86E02D81AEF34F00500FA6E090087
:10682000F550FD6E0900F550FE6E0900F550FF6E43
:10683000FA501200010E12005EEF34F01304200E25
:106840001458D8B026EF34F028EF34F02EEF34F09F
:1068500013C516F514C517F532EF34F0200E176E78
:10686000000E166EF00E5DEC2FF0156E0C0E151668
:10687000D8B43DEF34F03FEF34F042EF34F0010E86
:1068800068EF34F011C50AF512C50BF516C50CF505
:1068900017C50DF5CEEC33F00009D8A452EF34F053
:1068A00054EF34F056EF34F03FEF34F01650112629
:1068B000175012221650135E1750145A135014100A
:1068C000D8A465EF34F067EF34F01EEF34F0000E1B
:1068D000120007500810D8B470EF34F072EF34F0A3
:1068E0007BEF34F007500810D8A479EF34F07BEF39
:1068F00034F080EF34F0055035EC3AF0B3EF34F07B
:1069000020EE09F00750D9260850DA22DE50DE10BA
:10691000D8B48DEF34F08FEF34F0AAEF34F020EEDE
:1069200009F00750D9260850DA2210EE03F007507C
:10693000E1260850E222DE50E65CE650800A0D6E49
:10694000DE50800A0D58D8B0A8EF34F0AAEF34F02A
:10695000B3EF34F020EE03F00750D9260850DA22C6
:10696000DE2A000EDD221200A00E286E140E296E03
:10697000000E2A6E000E2B6E48C52CF549C52DF56C
:106980004AC52EF54BC52FF5ABEC36F0A00E426E86
:10699000140E436E000E446E000E456E4C0E466E95
:1069A000050E476E84EC37F00009D8B4DAEF34F006
:1069B000DCEF34F0DEEF34F0F0EF34F048504C18F8
:1069C0000DE149504D180AE14A504E1807E14B506D
:1069D0004F18D8A4EEEF34F0F0EF34F0B4EF34F009
:1069E0001200080E486E140E496E000E4A6E000E1C
:1069F0004B6E000E4C6E010E4D6E000E4E6E000E74
:106A00004F6EE3EC31F00009D8B409EF35F00BEF2D
:106A100035F00EEF35F0000E2BEF35F0000E486E1E
:106A20001A0E496E000E4A6E000E4B6E000E4C6E32
:106A3000000E4D6E010E4E6E000E4F6EE3EC31F007
:106A40000009D8B426EF35F028EF35F02AEF35F0FD
:106A50000BEF35F0010E1200180E486E110E496E44
:106A6000000E4A6E000E4B6E010E4C6E000E4D6E07
:106A7000000E4E6E000E4F6EE3EC31F00009D8B4FC
:106A800044EF35F046EF35F049EF35F0000E66EF94
:106A900035F0000E486E140E496E000E4A6E000E60
:106AA0004B6E000E4C6E040E4D6E000E4E6E000EC0
:106AB0004F6E8DEC31F00009D8B461EF35F063EF23
:106AC00035F065EF35F046EF35F0010E1200000E9F
:106AD0000201A56F000EA66F000EA76F000EA86F33
:106AE000000EA96F000EAA6FA00EAB6F800EAC6FE8
:106AF000000EAD6F100EAE6F000EAF6F000EB06FD8
:106B0000000EB16F000EB26F000EB36F000E036E79
:106B1000000E046E000E056E20EC3AF0000E036EBF
:106B2000000E046E000E056E19EC3AF0000E036EB6
:106B3000000E046E000E056E27EC3AF0000E060102
:106B4000DE6F120005C50CF506C50DF503C50AF587
:106B500004C50BF5CDEF35F0610030F4F6F46100BB
:106B600034F4F7F4000EF86E250EF76403D0080035
:106B7000F55005D0F6C4E9F4F7C4EAF4EF50096E15
:106B80000C4A0D2A610028F4D9F461002CF4DAF4DF
:106B9000610024F4DFF40A4A0B2A0706D8A008068D
:106BA000072806E10828D8A4D8EF35F0DAEF35F049
:106BB000ACEF35F012005D50D8B4E1EF35F0E3EF03
:106BC00035F0EDEF35F0000E426E000E436E000E14
:106BD000446E000E456E11EF36F0010E5D6E42C53B
:106BE00018F543C519F544C51AF545C51BF5460EFC
:106BF0001C6E050E1D6E53EC28F00009D8B403EF8F
:106C000036F005EF36F007EF36F0E3EF35F0000E23
:106C10005D6E46C542F547C543F548C544F549C5CF
:106C200045F5120072C54EF573C54FF5000E07010C
:106C30005C6F000E5B6F30EF36F070C544F571C5C8
:106C400045F54E0E466E050E476E74C548F575C582
:106C500049F525EC1BF0445007015B2745505C23A8
:106C6000610038F5F6F461003CF5F7F4000EF86EBB
:106C70000800F5500009D8A440EF36F042EF36F096
:106C80001DEF36F05BC770F55CC771F5120011C5DA
:106C90000AF512C50BF513C50CF50D6A80EC33F03F
:106CA0000009D8A456EF36F058EF36F05BEF36F017
:106CB000010E7BEF36F0610044F4F6F4610048F415
:106CC000F7F4000EF86E250EF76403D00800F550B7
:106CD00005D0F6C4E9F4F7C4EAF4EF505DEC2FF008
:106CE0000009D8B476EF36F078EF36F07AEF36F068
:106CF00058EF36F0000E120005018F6F010E0F6E77
:106D0000000E116E000E106E8DC512F58EC513F5B6
:106D1000910E146E050E156E05018F51E7EC1DF0F6
:106D20000501906F9051D8A498EF36F09AEF36F0A5
:106D3000A9EF36F03B0E876F910E886F050E896FB5
:106D4000000E8B6F300E8A6F010E70EC38F005016B
:106D5000906F905112005D50D8B4B1EF36F0B3EFA0
:106D600036F0B6EF36F0010ED9EF36F0010E5D6E5B
:106D700028C514F529C515F52AC516F52BC517F52F
:106D80002CC518F52DC519F52EC51AF52FC51BF5FF
:106D9000010E1C6E97EC29F00009D8B4D2EF36F042
:106DA000D4EF36F0D6EF36F0B3EF36F0000E5D6E6E
:106DB000000E1200F0EC37F00501676F6751D8B490
:106DC000E4EF36F0E6EF36F0E9EF36F0675105EF25
:106DD00037F065C558F566C559F5010E94EC2BF0F2
:106DE0000501676F5BEC37F005016751D8B4FBEF25
:106DF00036F0FDEF36F0FFEF36F0E6EF36F065C522
:106E000003F566C504F5F8EC28F0120004C508F592
:106E100005C509F523EF37F0610020F4F6F46100B1
:106E200024F4F7F4000EF86E250EF76403D0080082
:106E3000F55005D0F6C4E9F4F7C4EAF4EF508CEC51
:106E400039F0084A092A0606D8A00706062806E1EE
:106E50000728D8A42EEF37F030EF37F00CEF37F0DB
:106E6000120003C505F504C506F539EF37F0034AEE
:106E7000042A61000CF4F6F4610010F4F7F4000E3B
:106E8000F86E250EF76403D00800F55005D0F6C45F
:106E9000E9F4F7C4EAF4EF500009D8A452EF37F050
:106EA00054EF37F037EF37F00550035C036E0650B0
:106EB0000458046E12000601E651D8B462EF37F0B0
:106EC00064EF37F065EF37F0E607E651D8A46BEFD3
:106ED00037F06DEF37F082EF37F0E551D8B473EF4C
:106EE00037F075EF37F082EF37F083EC30F00009C0
:106EF000D8A47DEF37F07FEF37F082EF37F0F40E54
:106F000083EF37F0000E12005D50D8B48AEF37F0EF
:106F10008CEF37F08FEF37F0010EACEF37F0010E4A
:106F20005D6E42C518F543C519F544C51AF545C54A
:106F30001BF546C51CF547C51DF553EC28F00009A7
:106F4000D8B4A5EF37F0A7EF37F0A9EF37F08CEF03
:106F500037F0000E5D6E000E1200000E146E000E73
:106F6000136EBEEF37F012C505F5066A10C507F5BA
:106F700011C508F569EC34F0134A142A13500E2495
:106F8000D96E14500F20DA6EDF50126E1250D8A452
:106F9000CCEF37F0CEEF37F0B3EF37F0120005014A
:106FA000716F6CC560F56DC561F56EC562F56FC535
:106FB00063F570C564F5050171512FEC16F00009F9
:106FC000D8B4E5EF37F0E7EF37F0EAEF37F0000E2F
:106FD000EFEF37F04EEC3AF042EC3AF0010E1200CF
:106FE0000601E62BE605D8A4F8EF37F0FAEF37F004
:106FF0000FEF38F0E551D8B400EF38F002EF38F079
:107000000FEF38F00BEC2CF00009D8A40AEF38F0A1
:107010000CEF38F00FEF38F0F40E10EF38F0000EF0
:10702000120016BE1EEF38F0165006E11504D8B057
:107030001CEF38F01EEF38F02CEF38F015C517F5BF
:1070400016C518F5171E181E174A182A17C515F564
:1070500018C516F530EF38F015C515F516C516F537
:10706000120004C508F505C509F543EF38F0000E18
:107070008CEC39F0610020F4D9F4610024F4DAF4E6
:10708000DF6E084A092A0606D8A00706062806E188
:107090000728D8A44EEF38F050EF38F037EF38F02B
:1070A0001200036E300E035E0A0E03605AEF38F0D2
:1070B0005CEF38F05FEF38F003506FEF38F0038A81
:1070C000310E035E060E036068EF38F06AEF38F0A9
:1070D0006EEF38F003500A0F6FEF38F0FF0E12001A
:1070E00005018C6F87C565F588C566F589C567F5A7
:1070F0008AC568F58BC569F5000E05016A6F000E3B
:107100006B6F000E6D6F000E6C6F000E6F6F000ED8
:107110006E6F8C510BEC18F012006100E8F301F572
:107120006100ECF302F59EAE98EF38F09AEF38F07C
:10713000A3EF38F0AEAE9FEF38F0A1EF38F0A3EF39
:1071400038F000EC3AF0610008F4FBF4610004F45C
:10715000FAF41100B2EF38F0000E046E010E036E67
:10716000F9EC38F00606000E075A085A095A0628A4
:107170000AE1072808E1082806E10928D8A4C3EF96
:1071800038F0C5EF38F0ACEF38F012000701EF51DE
:10719000F011F111D8B4CFEF38F0D1EF38F0DEEFC5
:1071A00038F002D8DEEF38F00500FA6EEF51FD6ED0
:1071B000F051FE6EF151FF6EFA5012000401079D6E
:1071C0001200036E0350D8B4E8EF38F0EAEF38F05D
:1071D000F8EF38F00401069D0601E751D8B4F3EF4B
:1071E00038F0F5EF38F0F6EF38F0E7070401068DD8
:1071F000120002EF39F0030E056E980EE82EFED74E
:10720000052EFCD70306D8A00406032806E10428AF
:10721000D8A40DEF39F00FEF39F0FBEF38F0120082
:107220002C04001B08000630003218003D00002F1F
:107230006400340400110400132C000404006504ED
:0D724000000964002A04002704003E00003D
:10724E0067EC39F005019D6F9D51D8A431EF39F0EF
:10725E0033EF39F03BEF39F09BC572F59CC573F5F2
:10726E00E0EC32F005019D6F9D5112009EC6CFF5E8
:10727E009FC6D0F5A0C6D1F5A1C6D2F5A2C6D3F54C
:10728E00A3C6D4F5A4C6D5F5A5C6D6F5000E050140
:10729E00D76F89EC1CF01200780E506E050E516EF1
:1072AE00000E0501706F000E716F76C572F577C511
:1072BE0073F5500E746F050E756F12EC36F01200EA
:1072CE00000E5FEC2DF00009D8B470EF39F072EFBC
:1072DE0039F075EF39F0F40E79EF39F0010E060141
:1072EE00E46F000E1200000E0001606F000E616F61
:1072FE00000E636F000E646F000E656F000E666FFA
:10730E00000E676F000E686F1200036E010E000113
:10731E00826F61000CF481F0B1A098EF39F09AEF12
:10732E0039F093EF39F0000180511200600E000128
:10733E00AD6F000EAF6F000EB36F030EB16F000E88
:10734E00B06F000EAC6F1200000E0601E76F960EC6
:10735E00036E740E046E000E056E2EEC3AF0D68E91
:10736E0012005CEC3AF07AEC39F0F0EC2CF09DEC7B
:10737E0039F067EC35F0C5EC39F01200020E000161
:10738E00846F400E856F000E866F000E8C6F000EA0
:10739E00896FC89C12000601E751D8A4D9EF39F0C5
:1073AE00DCEF39F0010EDDEF39F0000E1200036E46
:1073BE00B2A2E4EF39F0E6EF39F0DFEF39F0610019
:1073CE000CF4A3F21200000E5D6E3E0E116E260E30
:1073DE00126E090E136E47EC36F01200000E5D6E43
:1073EE00470E116E260E126E050E136E47EC36F01A
:1073FE001200040107AD06EF3AF008EF3AF00AEF7B
:10740E003AF0C6EC38F01200C8000000000000C7C9
:10741E00000000000000000E0601E66F000EE56F92
:10742E00000E120003C5F5F704C5F6F705C5F7F70C
:10743E00120003C5F8F704C5F9F705C5FAF71200EF
:10744E0003C5F2F704C5F3F705C5F4F7120003C53B
:10745E00EFF704C5F0F705C5F1F71200046E0450FE
:10746E00DEEC39F012005DC503F503501200010E7B
:10747E007FEC2CF01200010E5D6E12003AEC1FF044
:10748E0012000001849F12000601E72B1200010E6C
:10749E001200010E1200C08E1200C09E1200C19E7C
:1074AE001200C18E1200F40E1200D69A1200FF01C5
:0574BE001200120004A1
:020000040020DA
:10000000FF0FFF0FFF0FFF0FFF0FFF0FFF0FFF0F80
:10001000FF0FFF0FFF0FFF0FFF0FFF0FFF0FFF0F70
:020000040030CA
:0A000000ECFFF7FF9FFFFFFFFFFF7B
:00000001FF
