:040000000DEF00F010
:0400080025EFA8F048
:06001800FF0087EFA1F0DC
:10FEEE0000185401FE53019252010000003C4D01D6
:10FEFE00924F01000000000000000000000000E230
:10FF0E001D01000001465401465401465401465459
:10FF1E000146540102400000000240000100C900E9
:10FF2E00E824000000525CCFFFFFFF006D61696E98
:10FF3E003A206D326D5F776966695F696E6974200C
:10FF4E0063616C6C206572726F7221282564290DB5
:10FF5E000A0057692D46692049502069732025757E
:10FF6E002E25752E25752E25750D0A0057692D46E1
:10FF7E006920646973636F6E6E65637465640D0AE0
:10FF8E000063616E206E6F742066696E642041504E
:10FF9E002025730D0A0057494E433135303020412C
:10FFAE0050207363616E200A0D0057692D4669203B
:10FFBE00636F6E6E65637465640D0A005B25645D28
:10FFCE0020535349443A25730D0A00466F756E64EB
:10FFDE00202573200D0A00656464796D6573686170
:10FFEE00636B006950686F6E653133006C6C730023
:01FFFE000002
:020000040001F9
:100000000701C16F410E0701C119D8B40AEF80F092
:100010000CEF80F015EF80F0540EC119D8A413EF47
:1000200080F015EF80F031EF80F0CDC62AF5CEC616
:100030002BF5CFC62CF5D0C62DF5670E2E6E070E0C
:100040002F6E000E316E040E306EA5EC9CF0000990
:10005000D8A42DEF80F02FEF80F0B5EF82F0B5EF50
:1000600082F0420EC119D8A438EF80F03AEF80F048
:1000700058EF80F0CDC62AF5CEC62BF5CFC62CF5AD
:10008000D0C62DF56B0E2E6E070E2F6E000E316E44
:10009000040E306EA5EC9CF00009D8A452EF80F05D
:1000A00054EF80F0B5EF82F0B5EF82F0B5EF82F05B
:1000B000430EC119D8A45FEF80F061EF80F0F0EF3C
:1000C00080F0CDC62AF5CEC62BF5CFC62CF5D0C60E
:1000D0002DF5B50E2E6E070E2F6E000E316E0C0E26
:1000E000306EA5EC9CF00009D8A479EF80F07BEF8E
:1000F00080F0B5EF82F00701BEBF81EF80F083EFA3
:1001000080F0DCEF80F0BD510B0D3C0EF324D96E76
:10011000080EF420DA6EBE510B0D3C0EF324E16E96
:10012000080EF420E26EDFC4E7F4BE510B0D3B0E67
:10013000F324D96E080EF420DA6E010EDF6EF80E8D
:100140000501EE6FFF0EEF6F21EEBFF3610078F354
:10015000F0F5610074F3F1F5EE51F027EF51F12362
:100160000701BE510B0D390EF324D96E080EF42091
:10017000DA6E6100C0F7DEF46100C4F7DDF4060159
:10018000E34BE42BE351E411D8A4C9EF80F0CBEFAB
:1001900080F0CDEF80F0E34BE42B0701BE510B0D57
:1001A000370EF324D96E080EF420DA6E61008CFB52
:1001B000DEF4610090FBDDF4BEC772F7000E746FD1
:1001C000020E736FB7C775F7B8C776F7B9C777F779
:1001D000BAC778F7BBC779F7BCC77AF7B5EF82F033
:1001E000440EC119D8B4F7EF80F0F9EF80F002EFB8
:1001F00081F04B0EC119D8A400EF81F002EF81F01D
:100200004BEF81F0CDC62AF5CEC62BF5CFC62CF527
:10021000D0C62DF58B0E2E6E070E2F6E000E316E92
:10022000040E306EA5EC9CF00009D8A41AEF81F002
:100230001CEF81F0B5EF82F08BC70BF78CC70CF782
:1002400007018C51D8A427EF81F029EF81F056EFF8
:1002500080F0F80E0501EE6FFF0EEF6F21EE8DF3CB
:10026000610078F3F0F5610074F3F1F5EE51F027D9
:10027000EF51F12307018B510B0D390EF324D96E89
:10028000080EF420DA6E6100C0F7DEF46100C4F7F6
:10029000DDF4B5EF82F04A0EC119D8A452EF81F017
:1002A00054EF81F068EF81F0CDC62AF5CEC62BF56C
:1002B000CFC62CF5D0C62DF50D0E2E6E070E2F6E67
:1002C000000E316E440E306EA5EC9CF0B5EF82F05E
:1002D000460EC119D8B46FEF81F071EF81F083EF52
:1002E00081F0480EC119D8B478EF81F07AEF81F02F
:1002F00083EF81F04D0EC119D8A481EF81F083EF17
:1003000081F038EF82F0060E0A6F480EC119D8A4AA
:100310008CEF81F08EEF81F090EF81F0090E0A6F83
:10032000000E526F100E516FCDC62AF5CEC62BF5BA
:10033000CFC62CF5D0C62DF5A50E2E6E070E2F6E4E
:1003400051C730F552C731F5A5EC9CF00009D8A48F
:10035000ACEF81F0AEEF81F0B5EF82F0000E070157
:10036000076F000E066FB1C76FF7B3C706F7B4C7C4
:1003700007F76F510B0D3D0EF324D96E080EF420D4
:10038000DA6E000EDF6EADC770F7AEC771F7AFC79C
:1003900003F7B0C704F7A7C797F7A8C798F7A9C787
:1003A00099F7AAC79AF7ABC79BF7ACC79CF76F51F1
:1003B0000B0D370EF324D96E080EF420DA6E0651B9
:1003C000DE1807E10751DE18D8A4E9EF81F0EBEF62
:1003D00081F056EF80F071BFF6EF81F0715108E1C6
:1003E0007005D8A0F6EF81F0F8EF81F02EEF82F0E3
:1003F0000601CB510701705D0601CC51070171590F
:10040000D8B005EF82F007EF82F02EEF82F00351B3
:100410000601CD27070104510601CE23000ECF238C
:10042000000ED02370C751F771C752F78F0E3A6E86
:10043000070E3B6E0AC73CF5CDC63DF5CEC63EF570
:10044000CFC63FF5D0C640F551C741F552C742F57A
:1004500007016F511CEC92F0B5EF82F070C791F775
:1004600071C792F7000E8F6F000E906FB5EF82F09C
:10047000450EC119D8B43FEF82F041EF82F053EF3F
:1004800082F0470EC119D8B448EF82F04AEF82F0EB
:1004900053EF82F04C0EC119D8A451EF82F053EF04
:1004A00082F08BEF82F0070E026F470EC119D8A4BD
:1004B0005CEF82F05EEF82F060EF82F0080E026F78
:1004C000CDC62AF5CEC62BF5CFC62CF5D0C62DF558
:1004D000830E2E6E070E2F6E000E316E080E306EDC
:1004E000A5EC9CF00009D8A478EF82F07AEF82F0B6
:1004F000B5EF82F0000E0701096F000E086F83C789
:1005000005F787C708F788C709F785C700F786C7C3
:1005100001F7B5EF82F0520EC119D8A492EF82F024
:1005200094EF82F0B5EF82F0CDC62AF5CEC62BF55A
:10053000CFC62CF5D0C62DF5530E2E6E070E2F6E9E
:10054000000E316E140E306EA5EC9CF00009D8A49C
:10055000ACEF82F0AEEF82F0B5EF82F0000E070153
:10056000D56F000ED66F000ED76F1200610018F520
:10057000D9F461001CF5DAF4DEC4F6F4DDC4F7F456
:10058000000EF86E0800F550250AD8A4CAEF82F0D4
:10059000CCEF82F085EF84F0610018F5D9F46100AA
:1005A0001CF5DAF4DE2A000EDD22000E0701ED6FE5
:1005B000000EEC6FECC7DFF6EDC7E0F60601DD6973
:1005C000DE69610018F5D9F461001CF5DAF4DEC4C7
:1005D000F6F4DDC4F7F4000EF86E0800F550640A76
:1005E000D8B4F5EF82F0F7EF82F00DEF83F0610001
:1005F00018F5D9F461001CF5DAF4DEC4F6F4DDC4B4
:10060000F7F4000EF86E0800F550690AD8A40BEF55
:1006100083F00DEF83F058EF83F0610018F5D9F403
:1006200061001CF5DAF4DE2A000EDD22610020F5FF
:10063000D9F4610024F5DAF461007CF34AF5020E86
:10064000DE2661007CF34BF5000EDD22610028F50B
:10065000D9F461002CF5DAF4610078F360F56100FB
:1006600074F361F50501000E61BFFF0E626F636FE9
:10067000646F656F666F676F44C520F545C521F5EA
:1006800060C522F561C523F562C524F563C525F56E
:1006900064C526F565C527F566C528F567C529F53E
:1006A0002AEC88F020C544F521C545F5A6EF84F075
:1006B000610018F5D9F461001CF5DAF4DEC4F6F433
:1006C000DDC4F7F4000EF86E0800F550730AD8B4D4
:1006D0006CEF83F06EEF83F08DEF83F0610018F51F
:1006E000D9F461001CF5DAF4610078F303F56100D8
:1006F00074F304F5FA0E056EFF0E066E000E086E1A
:10070000030E076ED8EC98F003500410D8A48BEFBA
:1007100083F08DEF83F0E5EF83F0610018F5D9F4F5
:1007200061001CF5DAF4DEC4F6F4DDC4F7F4000E63
:10073000F86E0800F550730AD8B4A1EF83F0A3EF68
:1007400083F0AAEF83F0000E0501736F030E726F42
:10075000AFEF83F0000E0501736F010E726F610041
:1007600018F5D9F461001CF5DAF47251DE267351E4
:10077000DD22610020F5D9F4610024F5DAF461008E
:100780007CF34AF5020EDE2661007CF34BF5000E89
:10079000DD22610028F5D9F461002CF5DAF461005E
:1007A00078F370F5610074F371F544C50EF545C535
:1007B0000FF570C510F571C511F5FEEC92F00EC580
:1007C00044F50FC545F5A6EF84F0610018F5D9F49E
:1007D00061001CF5DAF4DEC4F6F4DDC4F7F4000EB3
:1007E000F86E0800F550750AD8A4F9EF83F0FBEF16
:1007F00083F047EF84F0610018F5D9F461001CF52F
:10080000DAF4DE2A000EDD22610020F5D9F4610061
:1008100024F5DAF461007CF34AF5020EDE2661006D
:100820007CF34BF5000EDD22610028F5D9F4610060
:100830002CF5DAF4610078F34CF5610074F34DF5B2
:100840004CC568F54DC569F505016A6B6B6B6C6B42
:100850006D6B6E6B6F6B44C520F545C521F568C5A2
:1008600022F569C523F56AC524F56BC525F56CC568
:1008700026F56DC527F56EC528F56FC529F51AEC67
:1008800091F020C544F521C545F5A6EF84F061003F
:1008900018F5D9F461001CF5DAF4DEC4F6F4DDC411
:1008A000F7F4000EF86E0800F550250AD8A45BEFA7
:1008B00084F05DEF84F076EF84F0610018F5D9F4F0
:1008C00061001CF5DAF4DE2A000EDD22000E066E51
:1008D000250E056E44C507F545C508F5BAECA3F02D
:1008E000000E456E010E446EA6EF84F0610018F50F
:1008F000D9F461001CF5DAF4DE2A000EDD22000EC8
:10090000456E000E446EA6EF84F0610018F5D9F430
:1009100061001CF5DAF4DEC4F6F4DDC4F7F4000E71
:10092000F86E0800F550056E066A44C507F545C522
:1009300008F5BAECA3F0610018F5D9F461001CF5D4
:10094000DAF4DE2A000EDD2270EF84F012000501D9
:10095000696F0C0E286E000E296E0C0E2A6E000EAA
:100960002B6E000E2C6E000E2D6E000E2E6E000EE5
:100970002F6E43ECA6F08C0E286E100E296E000E22
:100980002A6E000E2B6E000E2C6E000E2D6E000EC9
:100990002E6E000E2F6E43ECA6F0AC0E286E070EE6
:1009A000296E020E2A6E000E2B6E000E2C6E000EAB
:1009B0002D6E000E2E6E000E2F6E43ECA6F0180E5C
:1009C000486E110E496E000E4A6E000E4B6E010EFF
:1009D0004C6E000E4D6E000E4E6E000E4F6E32ECE1
:1009E000A1F00009D8B4F7EF84F0F9EF84F0FCEF40
:1009F00084F0000E82EF86F0000E486E140E496EF1
:100A0000000E4A6E000E4B6E000E4C6E040E4D6EC4
:100A1000000E4E6E000E4F6E32ECA1F00009D8B4FD
:100A200014EF85F016EF85F018EF85F0F9EF84F0FC
:100A3000140E426E100E436E000E446E000E456E94
:100A400073ECA5F045AE27EF85F029EF85F018EFA0
:100A500085F0BC0E426E070E436E020E446E000E11
:100A6000456E73ECA5F042B038EF85F03AEF85F0B3
:100A700083EF85F0070E05016B6FD00E6A6F69EF8B
:100A800085F0010E066E000E076E000E086E000E59
:100A9000096E42ECA8F00C0E426E000E436E0C0E76
:100AA000446E000E456E73ECA5F09E0E42180DE1EB
:100AB000D00E43180AE1AD0E441807E1100E451898
:100AC000D8A465EF85F067EF85F069EF85F077EFE3
:100AD00085F005016A07D8A06B076A2906E16B2932
:100AE000D8A475EF85F077EF85F041EF85F005012B
:100AF0006A516B11D8A47FEF85F081EF85F083EF09
:100B000085F0F9EF84F0000E0501656F010E666F48
:100B1000000E676F000E686F6951D8B492EF85F0D0
:100B200094EF85F0A8EF85F0AC0E286E070E296EC5
:100B3000020E2A6E000E2B6E7D0E2C6ED50E2D6EC3
:100B40001C0E2E6E3C0E2F6E43ECA6F0B1EF85F01E
:100B50006051D8B4AEEF85F0B0EF85F0B1EF85F01D
:100B6000658F8C0E286E100E296E000E2A6E000EF8
:100B70002B6E61C52CF562C52DF563C52EF564C5D8
:100B80002FF543ECA6F097EC94F0FF0E4814586E46
:100B90000F0E4914596E000E4A145A6E000E4B1473
:100BA0005B6E5B505A100BE1A00E585C030E595857
:100BB000D8A0DDEF85F0DFEF85F0E1EF85F00501EE
:100BC000658365C548F566C549F567C54AF568C5D5
:100BD0004BF54CECA4F00C0E286E000E296E0C0E9A
:100BE0002A6E000E2B6E610E2C6E2F0E2D6E520E85
:100BF0002E6EEF0E2F6E43ECA6F0070E05016B6F05
:100C0000D00E6A6F72EF86F0020E066E000E076E4F
:100C1000000E086E000E096E42ECA8F00501695145
:100C2000D8A415EF86F017EF86F054EF86F08C0EFF
:100C3000426E100E436E000E446E000E456E73EC55
:100C4000A5F0360E42180DE1260E43180AE1530EA8
:100C5000441807E1020E4518D8A431EF86F033EFAF
:100C600086F072EF86F08C0E286E100E296E000E44
:100C70002A6E000E2B6E000E2C6E000E2D6E000ED6
:100C80002E6E000E2F6E43ECA6F089ECA4F0000946
:100C9000D8A44DEF86F04FEF86F051EF86F0F9EFD4
:100CA00084F0010E82EF86F0AC0E426E070E436EAA
:100CB000020E446E000E456E73ECA5F0C30E421892
:100CC0000DE1C10E43180AE15D0E441807E1D70E8D
:100CD0004518D8A46EEF86F070EF86F072EF86F0BC
:100CE00051EF86F005016A07D8A06B076A2906E173
:100CF0006B29D8A47EEF86F080EF86F004EF86F0B3
:100D0000F9EF84F012000501746F050165517F0B46
:100D1000846F74C583F5000E866F080E856F6A5167
:100D20006B11D8B496EF86F098EF86F0A4EF86F0BA
:100D30006C516E25706F6D516F21716F70518527E9
:100D400071518623A8EF86F0685185276951862363
:100D50003D0E855D060E8659D8A0B1EF86F0B3EF43
:100D600086F0B6EF86F0FF0E29EF88F088ECA7F04A
:100D70000009D8B4BEEF86F0C0EF86F0C2EF86F06F
:100D8000B3EF86F0050174517B6F7C6B7D6B7E6BDE
:100D900065C570F5716B726B736B72C573F571C558
:100DA00072F570C571F5706B70517B1371517C13C6
:100DB00072517D1373517E138551706F8651716F1F
:100DC000726B736B71C573F570C572F5716B706B77
:100DD00070517B1371517C1372517D1373517E13CB
:100DE0008C0E286E100E296E000E2A6E000E2B6ED1
:100DF0007BC52CF57CC52DF57DC52EF57EC52FF563
:100E000043ECA6F0780E286E100E296E000E2A6EA6
:100E1000000E2B6E020E2C6E000E2D6E000E2E6E2E
:100E2000000E2F6E43ECA6F0000E05017F6F000E42
:100E3000806F000E816F000E826F030E766FE80EDA
:100E4000756F6CEF87F0780E426E100E436E000ED9
:100E5000446E000E456E7B0E466E050E476E1CEC12
:100E6000A7F0FBECA9F00009D8B439EF87F03BEF0D
:100E700087F03FEF87F0F3ECA6F0B3EF86F00501C3
:100E80007BB345EF87F047EF87F057EF87F0000E11
:100E9000426E040E436E150E446E000E456E7F0EBC
:100EA000466E050E476E1CECA7F07AEF87F0F50E44
:100EB000755D010E7659D8B060EF87F062EF87F06C
:100EC0006CEF87F0010E066E000E076E000E086EC6
:100ED000000E096E42ECA8F005017507D8A0760750
:100EE000752906E17629D8A478EF87F07AEF87F0A4
:100EF00023EF87F0FBECA9F00009D8A482EF87F07C
:100F000084EF87F090EF87F005017F518011811108
:100F10008211D8A48EEF87F090EF87F095EF87F0DD
:100F2000F3ECA6F0FD0E29EF88F07FC577F580C5BC
:100F300078F581C579F582C57AF577C515F578C557
:100F400016F579C517F57AC518F5830E196E050ED5
:100F50001A6E000E1C6E080E1B6EDFEC9DF0080E64
:100F600005017727000E782379237A2366516711CC
:100F7000D8B4BDEF87F0BFEF87F0D1EF87F077C52A
:100F800015F578C516F579C517F57AC518F566C54E
:100F900019F567C51AF568C51BF569C51CF5DFECC1
:100FA0009DF005016A516B11D8B4D9EF87F0DBEFE2
:100FB00087F0F5EF87F06E5177276F517823000E99
:100FC0007923000E7A2377C515F578C516F579C50E
:100FD00017F57AC518F56AC519F56BC51AF56CC50C
:100FE0001BF56DC51CF5DFEC9DF06C0E286E100E28
:100FF000296E000E2A6E000E2B6E7FC570F580C51F
:1010000071F581C572F582C573F5020ED8900501A0
:101010007037713772377337E82E06EF88F0020E9B
:1010200070112C6E71512D6E72512E6E73512F6E88
:1010300043ECA6F0F3ECA6F0FBECA9F00009D8B461
:1010400024EF88F026EF88F028EF88F0B3EF86F0E1
:10105000000E120022C53AF523C53BF524C53CF528
:1010600025C53DF526C53EF527C53FF528C540F504
:1010700029C541F541BE3FEF88F042EF88F0010EEF
:1010800043EF88F0000E386E396A38503910D8B402
:101090004CEF88F04EEF88F05EEF88F0411E401E66
:1010A0003F1E3E1E3D1E3C1E3B1E3A6C000E3B2268
:1010B0003C223D223E223F22402241220601DEBF49
:1010C00064EF88F066EF88F067EF88F0DF93DEBFAB
:1010D00074EF88F0DE5106E1DD05D8B072EF88F0DC
:1010E00074EF88F07AEF88F0000E356E010E346EE2
:1010F0007EEF88F0DDC634F5DEC635F5ECC736F593
:10110000EDC737F538503910D8A489EF88F08BEF48
:1011100088F092EF88F0DFA590EF88F092EF88F0EA
:1011200095EF88F03606D8A03706000E436E1F0EE6
:10113000426E000E0801CB6F1AEF89F04206D8A06C
:101140004306AC0E4224D96E080E4320DA6E3AC52F
:1011500003F53BC504F53CC505F53DC506F53EC5A3
:1011600007F53FC508F540C509F541C50AF50A0E62
:101170000B6E000E0C6E000E0D6E000E0E6E000E4D
:101180000F6E000E106E000E116E000E126EE2EC6D
:1011900096F003C52AF504C52BF505C52CF506C543
:1011A0002DF507C52EF508C52FF509C530F50AC57B
:1011B00031F52AC515F52CC516F5A9ECA7F0155083
:1011C000300FDF6E3406D8A035063606D8A03706B5
:1011D0003AC503F53BC504F53CC505F53DC506F527
:1011E0003EC507F53FC508F540C509F541C50AF5F7
:1011F0000A0E0B6E000E0C6E000E0D6E000E0E6EC3
:10120000000E0F6E000E106E000E116E000E126EAC
:101210005CEC95F003C53AF504C53BF505C53CF516
:1012200006C53DF507C53EF508C53FF509C540F5BE
:101230000AC541F543BE25EF89F0435008E1420459
:10124000D8A025EF89F027EF89F058EF89F03A50C0
:101250003B103C103D103E103F1040104110D8A4F0
:1012600034EF89F036EF89F09EEF88F035BE43EF1A
:1012700089F0355006E13404D8B041EF89F043EFEE
:1012800089F09EEF88F037BE4EEF89F0375008E1C5
:101290003604D8A04EEF89F050EF89F058EF89F06E
:1012A0000601DFB356EF89F058EF89F09EEF88F022
:1012B00038503910D8A45FEF89F061EF89F069EFF9
:1012C00089F00601DFA567EF89F069EF89F088EF03
:1012D00089F04206D8A0430638503910D8A473EFDD
:1012E00089F075EF89F07BEF89F0000E336E2B0EDD
:1012F000326E7FEF89F0000E336E2D0E326EAC0E23
:101300004224D96E080E4320DA6E6100C8F4DFF47F
:1013100020C515F521C516F5AC0E4224176E080E32
:101320004320186E36C519F537C51AF545EC9EF001
:1013300015C520F516C521F51200F10E0601A06FA6
:1013400022EE24F011EEBDF2050EDBC4E3F4E80654
:10135000FCE2000EBD6F000EBE6FCFC5BFF6D0C55C
:10136000C0F6D1C5C1F6D5C5C2F60501D751D8A47E
:10137000BCEF89F0BEEF89F0C3EF89F0020E0601E1
:10138000A56FC6EF89F0000E0601A56F210E0501BD
:10139000D161CDEF89F0CFEF89F0EFEF8AF0EFEF79
:1013A00089F0D1510601BF250501D86F000E060155
:1013B000C0210501D96F610060F7F6F4610064F7A0
:1013C000F7F4000EF86E0800F5500009D8A4EBEF12
:1013D00089F0EDEF89F0EFEF89F0D1C5C1F6D107C3
:1013E000D129D8A4F6EF89F0F8EF89F0D1EF89F090
:1013F000EFEF8AF0BD0E8D6F060E8E6F0601A551C0
:1014000014ECA6F00601A06F0CEF8BF0D351D411B1
:10141000D8B40DEF8AF00FEF8AF00CEF8BF022EECC
:101420002AF011EEA6F2040EDBC4E3F4E806FCE2B7
:10143000D3C503F5D4C504F5C9ECA6F003C59EF6E3
:1014400004C59FF6400E06019E199F11D8A42BEFEC
:101450008AF02DEF8AF033EF8AF0D3C5A6F6D4C513
:10146000A7F639EF8AF0D3C5A8F6D4C5A9F69EC66B
:10147000AAF6BD0E0501876F060E886FA60E896F4E
:10148000060E8A6F0601A55114EC90F00601A06FBC
:101490000CEF8BF0D351D411D8B451EF8AF053EF45
:1014A0008AF00CEF8BF0D3C5A1F6D4C5A2F62FC8F5
:1014B000ABF630C8ACF631C8ADF632C8AEF6020EA7
:1014C0000601A125AB6F000EA221AC6F010EA12574
:1014D0000501D86F000E0601A2210501D96F610038
:1014E00060F7F6F4610064F7F7F4000EF86E080098
:1014F0006100D4F3DAF5DA050601AD6F610084FA14
:10150000F6F4610088FAF7F4000EF86E0800610046
:10151000D4F3AEF6BD0E0501876F060E886FAB0ED5
:10152000896F060E8A6F0601A55120EC96F0060120
:10153000A06F0CEF8BF0D351D411D8B4A2EF8AF086
:10154000A4EF8AF00CEF8BF0D3C5A3F6D4C5A4F6B4
:1015500022EE00F011EEAFF20D0EDBC4E3F4E8066C
:10156000FCE2000E0601AF6F000EB06FA3C6B1F62D
:10157000A4C6B2F6150EA325B36F000EA421B46F56
:10158000000EB66F000EB56FA3C603F5A4C604F532
:10159000C9ECA6F003C5B7F604C5B8F6150E0601EA
:1015A000A325036E000EA421046EC9ECA6F003C5AA
:1015B000B9F604C5BAF6000E0601BB6F000EBC6F8B
:1015C000BD0E036E060E046EAF0E056E060E066EA1
:1015D000A5511EECAAF00601A06F0CEF8BF0D251C2
:1015E000D86FD96BD951000AD8B4F9EF8AF00CEF53
:1015F0008BF0D851010AD8B4FAEF89F0030AD8B4B5
:1016000006EF8AF0010AD8B44AEF8AF0070AD8B484
:101610009BEF8AF00CEF8BF00601A0511200186EC0
:10162000F40E1B6E2C0E1024196E000E11201A6E73
:1016300012501310D8B41FEF8BF021EF8BF060EF36
:101640008CF020EE02F01250D9261350DA22DE5030
:10165000DE10D8B42EEF8BF030EF8BF060EF8CF013
:1016600020EE04F01250D9261350DA22200EDF6447
:101670003CEF8BF03EEF8BF040EF8BF060EF8CF0A7
:1016800014501510D8B447EF8BF049EF8BF05DEF95
:101690008CF014C51CF515C51DF5040E14241E6E22
:1016A000000E15201F6E14C503F515C504F5000EB8
:1016B000066E000E056E000E086E300E076ECFEC43
:1016C00093F0610070F4D9F4610074F4DAF461000D
:1016D00064F4DEF4610068F4DDF481EF8BF020EE59
:1016E00002F01C50D9261D50DA22000EDB8220EEBB
:1016F00002F01C50D9261D50DA22000EDB809AEF32
:101700008BF01850166E176A1750000AD8B48BEF7A
:101710008BF060EF8CF01650000AD8B49AEF8BF083
:10172000010AD8B477EF8BF0030AD8B46FEF8BF0CF
:1017300060EF8CF020EE05F01250D9261350DA221B
:10174000DE28D8A4A6EF8BF0A8EF8BF0B8EF8BF0D3
:1017500020EE05F01250D9261350DA2210EE03F0D5
:101760001C50E1261D50E222DFC4E7F4E4EF8BF0C9
:1017700020EE05F01250D9261350DA220F0EDF604A
:10178000C4EF8BF0C6EF8BF060EF8CF020EE05F02D
:101790001250D9261350DA22DF50D8B4D2EF8BF092
:1017A000D4EF8BF060EF8CF020EE03F01C50D926C4
:1017B0001D50DA2210EE05F01250E1261350E222FD
:1017C000E750166E1604DF6E0F50D8B4EAEF8BF0B8
:1017D000ECEF8BF060EF8CF0040E0F64F2EF8BF007
:1017E000F4EF8BF0F6EF8BF060EF8CF020EE28F04A
:1017F0001E50D9261F50DA2261003CF4DFF420EE9F
:1018000004F01250D9261350DA22610078F4E1F482
:1018100061007CF4E2F4DFC4E7F4010E1E24036EE1
:10182000000E1F20046E20EE02F01250D926135035
:10183000DA22610078F305F5610074F306F520EE15
:1018400004F01250D9261350DA22DF50166E1650CB
:10185000076E086A3AECA5F0610048F4D9F461001B
:101860004CF4DAF4DE50DE10D8B439EF8CF03BEFF4
:101870008CF05BEF8CF020EE21F01E50D9261F502B
:10188000DA22010EDF6E220E1E24036E000E1F20D0
:10189000046E610048F4D9F461004CF4DAF461009C
:1018A00078F305F5610074F306F5000E086E060E78
:1018B000076E3AECA5F0000E1B6E1B5061EF8CF02A
:1018C000F10E12000501E16F90EF8DF0DBC5E2F53E
:1018D000DCC5E3F5000E0601E56F610088F7D9F479
:1018E00061008CF7DAF4DF50D8B479EF8CF07BEF3D
:1018F0008CF082EF8CF0000E24ECA9F00601E52BB1
:10190000AEEF8DF0FF0E05ECA4F0AEEF8DF0DBC571
:10191000EAF5DCC5EBF50A0EEA25036E000EEB21B5
:10192000046EC9ECA6F003C5E6F504C5E7F5CA0EDA
:101930000501746FFF0E756FE5C676F5776B0A0EBD
:10194000EA25786F000EEB21796F11ECA9F009EC14
:10195000AAF00701EE6F0501E651E711D8B4B3EF25
:101960008CF0B5EF8CF004EF8DF0F10E036EFF0EEE
:10197000046EC9ECA6F003C5E4F504C5E5F5050160
:10198000E651E41907E1E751E519D8A4CAEF8CF054
:10199000CCEF8CF004EF8DF00A0EEA25036E000EFA
:1019A000EB21046EF10E056EFF0E066EE4C507F521
:1019B000E5C508F52BECA0F003500410D8A4E3EF24
:1019C0008CF0E5EF8CF004EF8DF0D90E0501746F0B
:1019D000FF0E756FF10E766FFF0E776F11ECA9F0A9
:1019E000F10E0601C36FFF0EC46F090EC56F020E24
:1019F000C66FE50EC76FFF0EC86F000ECA6FC969CC
:101A0000D5ECA8F0AEEF8DF00701EE510601E55DD3
:101A1000D8B00DEF8DF00FEF8DF014EF8DF0E55194
:101A200024ECA9F07EEF8CF08F0E0501746FFF0E91
:101A3000756FF10E766FFF0E776F11ECA9F0FF0E48
:101A400005ECA4F0AEEF8DF0DBC5E8F5DCC5E9F5FB
:101A50006100A0F7D9F46100A4F7DAF4DE04D8A499
:101A600034EF8DF036EF8DF038EF8DF0AEEF8DF076
:101A70006100A0F7D9F46100A4F7DAF4DF50D8A42C
:101A800044EF8DF046EF8DF0AEEF8DF07A0E746F6F
:101A9000FF0E756F11ECA9F0FF0E05ECA4F0AEEF90
:101AA0008DF0DBC5ECF5DCC5EDF5B80E746FFF0EFF
:101AB000756F11ECA9F0600E0501746FFF0E756F64
:101AC0006100B0F7D9F46100B4F7DAF4DF50DD6FEC
:101AD000DD51766F776B20EE01F0EC51D926ED5198
:101AE000DA22DF50DE6FDE51786F796B20EE02F084
:101AF000EC51D926ED51DA22DF50DF6FDF517A6FDA
:101B00007B6B20EE03F0EC51D926ED51DA22DF5049
:101B1000E06FE0517C6F7D6B11ECA9F0AEEF8DF0C2
:101B20000501E151DD6FDE6BDE51000AD8B49BEF99
:101B30008DF0AEEF8DF0DD51110AD8B466EF8CF068
:101B4000020AD8B487EF8CF03F0AD8B424EF8DF0A6
:101B50001E0AD8B451EF8DF0AEEF8DF012008FEC6D
:101B6000A9F00009D8A4B7EF8DF0B9EF8DF0BCEF64
:101B70008DF0000EF0EF8EF0700E426E100E436E80
:101B8000000E446E000E456EF60E466E050E476E54
:101B90001CECA7F00009D8B4D0EF8DF0D2EF8DF097
:101BA000D5EF8DF0F40EF0EF8EF00501F6B1DBEF1E
:101BB0008DF0DDEF8DF0DFEF8DF0D2EF8DF0F6914F
:101BC000700E286E100E296E000E2A6E000E2B6EFF
:101BD000F6C52CF5F7C52DF5F8C52EF5F9C52FF589
:101BE00043ECA6F00009D8B4F8EF8DF0FAEF8DF0D1
:101BF000FCEF8DF0D2EF8DF0F6C5F2F5F7C5F3F5F9
:101C0000F8C5F4F5F9C5F5F5030E0DEF8EF00501F5
:101C1000D890F533F433F333F233E82E07EF8EF038
:101C2000FF0EF2150601E16F0F0E0501F315060117
:101C3000E26FE151E211D8A420EF8EF022EF8EF096
:101C400025EF8EF0FE0EF0EF8EF0840E426E100E39
:101C5000436E000E446E000E456EF30E466E070E88
:101C6000476E1CECA7F00009D8B439EF8EF03BEFBB
:101C70008EF03DEF8EF0D2EF8DF0F3C718F5F4C77C
:101C800019F5F5C71AF5F6C71BF5FA0E1C6E050E09
:101C90001D6E000E1F6E040E1E6EE7EC99F000091B
:101CA000D8B455EF8EF057EF8EF059EF8EF0D2EF9B
:101CB0008DF00501FC510601E15D0501F26FFD515A
:101CC0000601E2590501F36FF35109E1050EF25DDA
:101CD000D8A06DEF8EF06FEF8EF072EF8EF0FA0EEF
:101CE000F0EF8EF0FA51D8B478EF8EF07AEF8EF0F4
:101CF000D2EF8DF0070EFA6580EF8EF082EF8EF056
:101D000084EF8EF0D2EF8DF0FD0EF26FFF0EF36FC9
:101D1000FA51030D6100CCF3F4F56100D0F3F5F551
:101D2000F251F427F351F5230D0EF425F66EFF0E54
:101D3000F521F76EF86A000EF82202D8CCEF8EF08B
:101D40000500FA6E0900F550FD6E0900F550FE6EB3
:101D50000900F550FF6EFA50F80EFC250601CB6F16
:101D6000FF0E0501FD210601CC6F080E0701F325CA
:101D70000601CD6F000E0701F4210601CE6F000EA3
:101D80000701F5210601CF6F000E0701F6210601BC
:101D9000D06F0501FB511200010E79ECA8F0700E16
:101DA000486E100E496E000E4A6E000E4B6E020E0B
:101DB0004C6E000E4D6E000E4E6E000E4F6E32ECED
:101DC000A1F0000E79ECA8F0FBECA9F00009D8B462
:101DD000ECEF8EF0EEEF8EF0B9EF8DF0D2EF8DF0EC
:101DE00012000701026F000E0701006F090E016F5C
:101DF000A4EF8FF0610000FCD9F4610004FCDAF478
:101E00000251DE18D8A407EF8FF009EF8FF0A0EF92
:101E10008FF020EE01F00051D9260151DA22DE5078
:101E2000DE10D8B416EF8FF018EF8FF03EEF8FF082
:101E3000CDC62AF5CEC62BF5CFC62CF5D0C62DF5CE
:101E4000030E2E6E070E2F6E20EE01F00051D926E4
:101E50000151DA22610078F330F5610074F331F555
:101E6000A5EC9CF00009D8B438EF8FF03AEF8FF072
:101E70003EEF8FF013EF90F013EF90F00601DA5180
:101E8000DB11DC11D8A447EF8FF049EF8FF04BEF57
:101E90008FF0B3EF8FF0070120EE01F00051D9264B
:101EA0000151DA22DE50DE10D8B459EF8FF05BEF2B
:101EB0008FF08AEF8FF0340E0219D8A462EF8FF002
:101EC00064EF8FF066EF8FF074EF8FF0110E021950
:101ED000D8A46DEF8FF06FEF8FF074EF8FF0000EDE
:101EE0000601EC6F03C7F2F702D888EF8FF0050008
:101EF000FA6E0601DA51FD6EDB51FE6EDC51FF6EAB
:101F0000FA50030E036E070E046E07010251120011
:101F1000B3EF8FF002D89EEF8FF00500FA6E060146
:101F2000DA51FD6EDB51FE6EDC51FF6EFA50000E91
:101F3000036E000E046E070102511200B3EF8FF022
:101F4000030E0027000E0123610000FCD9F461009C
:101F500004FCDAF43E0EDE18D8A4B1EF8FF0B3EF34
:101F60008FF0FAEF8EF0200E07010219D8A4BBEF14
:101F70008FF0BDEF8FF013EF90F0CDC62AF5CEC6EF
:101F80002BF5CFC62CF5D0C62DF5670E2E6E070E9D
:101F90002F6E000E316E060E306EA5EC9CF000091F
:101FA000D8A4D5EF8FF0D7EF8FF013EF90F0060E97
:101FB0000601CD252A6E000ECE212B6E000ECF21FC
:101FC0002C6E000ED0212D6E67C72EF568C72FF539
:101FD00069C730F56AC731F5A5EC9CF00009D8A4B3
:101FE000F4EF8FF0F6EF8FF013EF90F00601DA5177
:101FF000DB11DC11D8B4FFEF8FF001EF90F03CEF74
:102000008FF002D813EF90F00500FA6EDA51FD6EF2
:10201000DB51FE6EDC51FF6EFA50670E036E070E49
:10202000046E200E120012000601006FF10E060170
:10203000016F050189518A11D8B421EF90F023EF87
:1020400090F017EF91F0020E0F6E000E116E6C0EF5
:10205000106E87C512F588C513F5020E146E060EB4
:10206000156E060100510FEC8BF00601016F015156
:10207000D8A43DEF90F03FEF90F017EF91F0320EC3
:10208000036E060E046E000E066E000E056E000E48
:10209000086E6C0E076ECFEC93F0610024F6D9F455
:1020A000610028F6DAF4DE50DE10D8B45AEF90F072
:1020B0005CEF90F0B3EF90F0050120EE02F0895153
:1020C000D9268A51DA22DE50DE10D8B46AEF90F0B9
:1020D0006CEF90F071EF90F0F10E0601016FF2EFEE
:1020E00090F0400E0601326F330E0B6E060E0C6E32
:1020F000610024F6D9F4610028F6DAF4610078F37F
:102100000DF5610074F30EF532C603F5046A000E96
:10211000066E020E056E0BEC9FF003500F6EDBECAB
:10212000A1F00009D8B497EF90F099EF90F09CEFF0
:1021300090F0F10E0601016F330E036E060E046E71
:10214000610024F6D9F4610028F6DAF4610078F32E
:1021500005F5610074F306F532C607F5086A3AEC36
:10216000A5F0F2EF90F0050120EE02F08951D9269A
:102170008A51DA22DE50DE10D8B4C1EF90F0C3EFFE
:1021800090F06CEF90F020EE04F08951D9268A513E
:10219000DA22400EDF64CFEF90F0D1EF90F0D3EF72
:1021A00090F06CEF90F020EE04F08951D9268A511E
:1021B000DA22DF500601326F330E036E060E046E14
:1021C000050120EE02F08951D9268A51DA226100F8
:1021D00078F305F5610074F306F532C607F5086A71
:1021E0003AECA5F006010151D8A4F9EF90F0FBEF0D
:1021F00090F017EF91F0BB0E0501656F020E666F50
:10220000060E676F000E696F300E686F320E6A6FD0
:10221000060E6B6F000E6D6F6C0E6C6F000E6F6FA5
:10222000300E6E6F010E83EC86F00601016F060121
:10223000015112000601DEBF20EF91F022EF91F074
:1022400023EF91F0DF93DEBF30EF91F0DE5106E136
:10225000DD05D8B02EEF91F030EF91F036EF91F030
:10226000000E336E010E326E3AEF91F0DDC632F59C
:10227000DEC633F5ECC734F5EDC735F522C536F5C6
:1022800023C537F524C538F525C539F526C53AF5F2
:1022900027C53BF528C53CF529C53DF5000E3F6E29
:1022A0001F0E3E6E000E0801CB6FCDEF91F03E0683
:1022B000D8A03F06AC0E3E24D96E080E3F20DA6E41
:1022C00036C503F537C504F538C505F539C506F536
:1022D0003AC507F53BC508F53CC509F53DC50AF506
:1022E0000A0E0B6E000E0C6E000E0D6E000E0E6EC2
:1022F000000E0F6E000E106E000E116E000E126EAC
:1023000077EC9DF003C52AF504C52BF505C52CF522
:1023100006C52DF507C52EF508C52FF509C530F5FD
:102320000AC531F52A50300FDF6E3206D8A03306C9
:102330003406D8A0350636C503F537C504F538C5CB
:1023400005F539C506F53AC507F53BC508F53CC5A1
:1023500009F53DC50AF50A0E0B6E000E0C6E000E57
:102360000D6E000E0E6E000E0F6E000E106E000E43
:10237000116E000E126E62EC9AF003C536F504C5BC
:1023800037F505C538F506C539F507C53AF508C569
:102390003BF509C53CF50AC53DF53E503F10D8B4A4
:1023A000D4EF91F0D6EF91F007EF92F0365037105E
:1023B000381039103A103B103C103D10D8A4E3EF10
:1023C00091F0E5EF91F057EF91F033BEF2EF91F01D
:1023D000335006E13204D8B0F0EF91F0F2EF91F013
:1023E00057EF91F035BEFDEF91F0355008E1340420
:1023F000D8A0FDEF91F0FFEF91F007EF92F006010A
:10240000DFB305EF92F007EF92F057EF91F020C5A0
:1024100015F521C516F5AC0E3E24176E080E3F20AB
:10242000186E34C519F535C51AF545EC9EF015C57D
:1024300020F516C521F51200456E45500B0D330EE3
:10244000F324486E080EF420496E41504210D8B46F
:102450002CEF92F02EEF92F0FDEF92F0610020F55C
:10246000D9F4610024F5DAF4DE50DE10D8B43BEF85
:1024700092F03DEF92F0FDEF92F020EE02F0485026
:10248000D9264950DA22DE50DE10D8B44AEF92F055
:102490004CEF92F0FDEF92F020EE08F04850D92674
:1024A0004950DA22DE04D8A458EF92F05AEF92F0A5
:1024B000FDEF92F020EE04F03A50D9263B50DA229C
:1024C000610004F5DEF4610008F5DDF441C546F570
:1024D00042C547F520EE02F04850D9264950DA228D
:1024E0004150DE5C4250DE58D8B079EF92F07BEF7D
:1024F00092F087EF92F020EE02F04850D926495032
:10250000DA22610078F346F5610074F347F53DC5C2
:102510002AF53EC52BF53FC52CF540C52DF56100CC
:1025200020F5D9F4610024F5DAF4610078F32EF592
:10253000610074F32FF546C530F547C531F5A5ECBC
:102540009CF00009D8A4A7EF92F0A9EF92F0FDEF5C
:1025500092F0610020F5D9F4610024F5DAF461000D
:10256000E8F4E1F46100ECF4E2F4DEC4E6F4DDC486
:10257000E5F420EE02F03A50D9263B50DA22610011
:1025800018F5DEF461001CF5DDF420EE04F03A509D
:10259000D9263B50DA224650DE5E4750DD5A46507F
:1025A000415E4750425A46503D2647503E22000E5B
:1025B0003F22000E402220EE08F04850D926495014
:1025C000DA22DF50D8A4E7EF92F0E9EF92F0F4EFCF
:1025D00092F041504210D8B4F0EF92F0F2EF92F046
:1025E000F4EF92F0FDEF92F041504210D8A4FBEFCF
:1025F00092F0FDEF92F066EF92F0120022EED4F02E
:1026000011EE13F1060EDBC4E3F4E806FCE210C59C
:102610001EF511C51FF51E501F10D8A412EF93F020
:1026200014EF93F018EF93F0130E1E6E050E1F6E4D
:102630001EC503F51FC504F5C9ECA6F003C522F5B8
:1026400004C523F5DDC620F5DEC621F521BE2BEF3E
:1026500093F02DEF93F042EF93F02250205C215045
:10266000800A126E2350800A1258D8A03AEF93F0D5
:102670003CEF93F03EEF93F042EF93F020C522F54C
:1026800021C523F522C520F523C521F5ECC71CF58E
:10269000EDC71DF50601DFB150EF93F052EF93F057
:1026A0006FEF93F060EF93F0000E066E200E056E54
:1026B0000EC507F50FC508F5BAECA3F0224A232A88
:1026C0001C50225C2350800A126E1D50800A125842
:1026D000D8A06DEF93F06FEF93F054EF93F0000EEE
:1026E0001B6E000E1A6E96EF93F0610078F4F6F40C
:1026F00061007CF4F7F4000EF86E250EF76403D049
:102700000800F55005D0F6C4E9F4F7C4EAF4EF5038
:10271000126E1250056E066A0EC507F50FC508F554
:10272000BAECA3F01E4A1F2A1A4A1B2A20501A5C30
:102730001B50800A126E2150800A1258D8A0A3EFB5
:1027400093F0A5EF93F075EF93F00601DFA1ABEFE7
:1027500093F0ADEF93F0CAEF93F0BBEF93F0000E60
:10276000066E200E056E0EC507F50FC508F5BAEC0E
:10277000A3F0224A232A1C50225C2350800A126EA6
:102780001D50800A1258D8A0C8EF93F0CAEF93F0FA
:10279000AFEF93F022C50EF523C50FF5120003C568
:1027A0000DF504C50EF507500810D8A4DAEF93F024
:1027B000DCEF93F0DEEF93F096EF94F0610034F4E9
:1027C000D9F4610038F4DAF4610014F4DFF407504E
:1027D0000D24096E08500E200A6EFF0E0924D96ED2
:1027E000FF0E0A20DA6E610014F4DFF4085007E1EE
:1027F000030E075CD8B0FFEF93F001EF94F003EF06
:1028000094F096EF94F020EE01F00D50D9260E5082
:10281000DA22610014F4DFF420EE02F00D50D92624
:102820000E50DA22610014F4DFF407500D24096E13
:1028300008500E200A6EFE0E0924D96EFF0E0A20E3
:10284000DA6E610014F4DFF407500D24096E0850AD
:102850000E200A6EFD0E0924D96EFF0E0A20DA6ED4
:10286000610014F4DFF4085007E1070E075CD8B0EC
:102870003CEF94F03EEF94F040EF94F096EF94F03C
:1028800020EE03F00D50D9260E50DA22610014F428
:10289000DFF407500D24096E08500E200A6EFC0E5E
:1028A0000924D96EFF0E0A20DA6E610014F4DFF4F9
:1028B000085007E1090E075CD8B061EF94F063EFB0
:1028C00094F065EF94F096EF94F00DC509F50EC500
:1028D0000AF5091E0A1E094A0A2A030E09140B6E7C
:1028E0000C6A0B500D260C500E220B50075E0C503C
:1028F000085AFC0E0716FF0E08168DEF94F06100C3
:1029000034F4D9F4610038F4DAF4610014F4DFF43B
:102910000706D8A008060D4A0E2A07500810D8A4AA
:1029200094EF94F096EF94F07FEF94F0120006018C
:10293000ED51EE11EF11F011D8B4A1EF94F0A3EF27
:1029400094F0ADEF94F0EDC648F5EEC649F5EFC64C
:102950004AF5F0C64BF55BEF95F0F40E426E130EA0
:10296000436E000E446E000E456E4C0E466E050E14
:10297000476E1CECA7F00009D8B4C1EF94F0C3EF88
:1029800094F0CDEF94F0000E486E000E496E000EEC
:102990004A6E000E4B6E5BEF95F0000E426E100E0D
:1029A000436E000E446E000E456EED0E466E060E32
:1029B000476E1CECA7F00009D8B4E1EF94F0E3EF08
:1029C00094F0E5EF94F0C3EF94F0A00E0601ED193A
:1029D0000BE1020EEE1908E1100EEF19F011D8A468
:1029E000F4EF94F0F6EF94F00DEF95F04C044D10E9
:1029F0004E104F10D8A4FFEF94F001EF95F003EFC5
:102A000095F049EF95F0A10EED6F020EEE6F100EEE
:102A1000EF6F000EF06F49EF95F0B00EED190BE17E
:102A2000020EEE1908E1100EEF19F011D8A41BEFF9
:102A300095F01DEF95F049EF95F0030E4C184D10F1
:102A40004E104F10D8A427EF95F029EF95F02BEFFB
:102A500095F049EF95F0040E4C184D104E104F10A4
:102A6000D8A435EF95F037EF95F041EF95F0B10E22
:102A7000ED6F020EEE6F100EEF6F000EF06F49EF6C
:102A800095F0B20EED6F020EEE6F100EEF6F000EAE
:102A9000F06FFF0EED17FF0EEE17F00EEF17FF0EA3
:102AA000F017000EED13000EEE13050EEF13000EDF
:102AB000F013A3EF94F01200000E146E12BE65EF37
:102AC00095F063EF95F077EF95F0121E111E101E32
:102AD0000F1E0E1E0D1E0C1E0B6C000E0C220D2266
:102AE0000E220F22102211221222010E146E0ABE93
:102AF0007EEF95F07CEF95F090EF95F00A1E091EA1
:102B0000081E071E061E051E041E036C000E04226E
:102B1000052206220722082209220A22010E141A7F
:102B200021EE15F1070EDE6AE806FDE20B500C10EF
:102B30000D100E100F10101011101210D8B4A3EFBA
:102B400095F0A5EF95F0F7EF95F0010E136EB3EF4A
:102B500095F0D8900B360C360D360E360F361036F3
:102B600011361236132A12AEB8EF95F0BAEF95F07F
:102B7000A9EF95F0D890153616361736183619364F
:102B80001A361B361C360B50035C0C5004580D5083
:102B900005580E5006580F5007581050085811503D
:102BA000095812500A58D8A0D8EF95F0DAEF95F0EE
:102BB000EBEF95F00B50035E0C50045A0D50055A84
:102BC0000E50065A0F50075A1050085A1150095A01
:102BD00012500A5A1580D8901232113210320F3228
:102BE0000E320D320C320B32132EBAEF95F0145018
:102BF000D8B4FDEF95F0FFEF95F00FEF96F01C1EA7
:102C00001B1E1A1E191E181E171E161E156C000EEE
:102C100016221722182219221A221B221C2215C53D
:102C200003F516C504F517C505F518C506F519C54C
:102C300007F51AC508F51BC509F51CC50AF51200EC
:102C400005018D6FF10E05018E6F89518A11D8B47F
:102C50002CEF96F02EEF96F0E0EF96F0610024F660
:102C6000D9F4610028F6DAF4DE50DE10D8B43BEF78
:102C700096F03DEF96F0E0EF96F020EE03F08951EC
:102C8000D9268A51DA22DF50D8B449EF96F04BEFBB
:102C900096F0E0EF96F020EE03F08951D9268A51A4
:102CA000DA22050EDF6057EF96F059EF96F0E0EF6D
:102CB00096F020EE02F08951D9268A51DA221A0EB6
:102CC000DE18D8B466EF96F068EF96F077EF96F0DE
:102CD00020EE02F08951D9268A51DA220A0EDE1836
:102CE000D8A475EF96F077EF96F0E0EF96F0030E2C
:102CF0000F6E000E116E100E106E87C512F588C58E
:102D000013F59F0E146E050E156E8D510FEC8BF0A2
:102D100005018E6F8E51D8A490EF96F092EF96F049
:102D2000E0EF96F020EE03F08951D9268A51DA229D
:102D3000DF508B6F8B058F6F20EE02F08951D92603
:102D40008A51DA22DF508B6F8B51036E046A000EBA
:102D5000066E020E056E0BEC9FF003500501906F9E
:102D6000910E0B6E050E0C6E610024F6D9F4610015
:102D700028F6DAF4610078F30DF5610074F30EF5CE
:102D800090C50FF5DBECA1F0BB0E0501656F9F0E42
:102D9000666F050E676F000E696F300E686F8F0EDD
:102DA0006A6F050E6B6F000E6D6F100E6C6F000E6C
:102DB0006F6F300E6E6F010E83EC86F005018E6F23
:102DC0008E511200000E146E0ABEEBEF96F0E9EF82
:102DD00096F0FDEF96F00A1E091E081E071E061E3D
:102DE000051E041E036C000E042205220622072283
:102DF000082209220A22010E146E12BE04EF97F077
:102E000002EF97F014EF97F0121E111E101E0F1E06
:102E10000E1E0D1E0C1E0B6C000E0C220D220E221F
:102E20000F221022112212220B500C100D100E1026
:102E30000F10101011101210D8B421EF97F023EFDB
:102E400097F06BEF97F0010E136E31EF97F0D8907B
:102E50000B360C360D360E360F361036113612364E
:102E6000132A12AE36EF97F038EF97F027EF97F06E
:102E70000B50035C0C5004580D5005580E5006586A
:102E80000F500758105008581150095812500A583E
:102E9000D8A04DEF97F04FEF97F05FEF97F00B5002
:102EA000035E0C50045A0D50055A0E50065A0F502E
:102EB000075A1050085A1150095A12500A5AD890FD
:102EC0001232113210320F320E320D320C320B32FE
:102ED000132E38EF97F01450D8B471EF97F073EFCA
:102EE00097F083EF97F00A1E091E081E071E061EA4
:102EF000051E041E036C000E042205220622072272
:102F0000082209220A2203C503F504C504F505C5F4
:102F100005F506C506F507C507F508C508F509C591
:102F200009F50AC50AF512001B501A1006E119042A
:102F3000D8B09DEF97F09FEF97F0ACEF97F0C40EED
:102F40003E6E800E3F6E1AC51BF519C51AF518C5E1
:102F500019F5186AB0EF97F0CA0E3E6E1AC53FF524
:102F600019C540F518C541F53E0E116E050E126EDD
:102F7000040E136EDFECA5F00009D8B4C2EF97F091
:102F8000C4EF97F0C7EF97F0010E38EF98F03A0EC4
:102F9000116E050E126E000E146E040E136E6DECA3
:102FA000A3F00009D8B4D7EF97F0D9EF97F0DBEF93
:102FB00097F0C4EF97F03DC51EF51F6A206A216A9D
:102FC0001EC521F5206A1F6A1E6A3CC522F5236AC8
:102FD000246A256A23C525F522C524F5236A226AB9
:102FE0003BC526F5276A286A296A28C529F527C519
:102FF00028F526C527F5266A3AC52AF52B6A2C6AD4
:103000002D6A26502A102E6E27502B102F6E285016
:103010002C10306E29502D10316E22502E10326E31
:1030200023502F10336E24503010346E2550311041
:10303000356E1E503210366E1F503310376E2050D2
:103040003410386E21503510396E610070F4D9F4A7
:10305000610074F4DAF46100D8F4DEF46100DCF4A9
:10306000DEF46100E0F4DEF46100E4F4DEF4000E6E
:10307000120003500410D8A440EF98F042EF98F0EB
:1030800045EF98F0F10ED7EF98F020EE05F00350E1
:10309000D9260450DA22DF500F0B056E066A053A76
:1030A000063AF00E061605500F0B0612F00E051626
:1030B00020EE04F00350D9260450DA22DF50076EC8
:1030C0000750096E086A055008120650091220EED2
:1030D00006F00350D9260450DA22DF500A6E0F0E94
:1030E0000A160A5008100D6E09500E6E20EE08F0F8
:1030F0000350D9260450DA22DF500F0B056E066A02
:10310000053A063AF00E061605500F0B0612F00EA1
:10311000051620EE07F00350D9260450DA22DF50BE
:10312000076E0750096E086A05500812065009120A
:1031300020EE09F00350D9260450DA22DF500A6E3F
:103140000F0E0A160A5008100B6E09500C6E0D5027
:103150000E10D8B4AEEF98F0B0EF98F042EF98F0C0
:103160000B500C10D8A4B7EF98F0B9EF98F0BBEF64
:1031700098F042EF98F0620E0B5C130E0C58D8A03A
:10318000C4EF98F0C6EF98F0C9EF98F0F30ED7EFC0
:1031900098F0610E0D5C130E0E58D8B0D2EF98F077
:1031A000D4EF98F0D6EF98F0C6EF98F0000E12002A
:1031B00003C50AF504C50BF505C50CF506C50DF5E7
:1031C0000706D8A00806072806E10828D8A4EBEFD0
:1031D00098F0EDEF98F0FAEF98F0000E046E000E04
:1031E000036E60EF99F00A4A0B2A0C4A0D2A070673
:1031F000D8A00806610028F4F6F461002CF4F7F476
:10320000000EF86E0800F5500009D8B40AEF99F0E6
:103210000CEF99F045EF99F0610030F4F6F461009D
:1032200034F4F7F4000EF86E0800F5500009D8B435
:103230001CEF99F01EEF99F045EF99F00750081038
:10324000D8B425EF99F027EF99F045EF99F0610098
:1032500028F4F6F461002CF4F7F4000EF86E080080
:103260006100D4F309F5610030F4F6F4610034F440
:10327000F7F4000EF86E0800F5500918D8B443EFC3
:1032800099F045EF99F0F3EF98F0610028F4F6F427
:1032900061002CF4F7F4000EF86E08006100D4F31E
:1032A00009F5610030F4F6F4610034F4F7F4000E2F
:1032B000F86E0800F550095C036E046AD8A0040695
:1032C00012001D0E266E050E276E175016101510D3
:1032D00007E1310E145CD8B070EF99F072EF99F0FD
:1032E0007EEF99F0C30E1D6E800E1E6E070E256ECA
:1032F000020E2626000E27228AEF99F0C90E1D6EB7
:1033000016C51EF515C51FF5080E256E030E2626DB
:10331000000E2722610098F4D9F461009CF4DAF4DD
:10332000610050F4DFF420EE01F02650D92627503A
:10333000DA2261006CF4DFF420EE02F02650D92688
:103340002750DA22610068F4DFF420EE03F0265003
:10335000D9262750DA22610064F4DFF420EE04F06D
:103360002650D9262750DA22610060F4DFF41C5081
:10337000D8B4BDEF99F0BFEF99F0D2EF99F01D0EE0
:10338000116E050E126E25C513F5DFECA5F00009D0
:10339000D8B4CDEF99F0CFEF99F0E5EF99F0010EA9
:1033A000E6EF99F01D0E0A6E050E0B6E25C50CF5A5
:1033B0000D6AD1ECA2F00009D8A4E1EF99F0E3EF97
:1033C00099F0E5EF99F0CFEF99F0000E120022EEA0
:1033D000DBF011EE23F1060EDBC4E3F4E806FCE2B9
:1033E0005C50D8B4F6EF99F0F8EF99F0FBEF99F054
:1033F000010E61EF9AF0010E5C6E1AC524F519C535
:1034000025F518C526F5000E276E1E041F10D8A43A
:103410000CEF9AF00EEF9AF014EF9AF0000E286E6F
:10342000020E296E18EF9AF01F50286E1EC529F55E
:10343000230E116E050E126E070E136EDFECA5F053
:103440000009D8B426EF9AF028EF9AF02AEF9AF004
:10345000F8EF99F01E041F10D8A431EF9AF033EF63
:103460009AF049EF9AF0200E116E050E126E000EC2
:10347000146E020E136E6DECA3F0226E610070F4F8
:10348000D9F4610074F4DAF4610080F4DFF454EFED
:103490009AF01CC511F51DC512F51EC513F51FC503
:1034A00014F56DECA3F0226E2250D8B45AEF9AF0C6
:1034B0005CEF9AF05EEF9AF0F8EF99F0000E5C6E18
:1034C000000E120021EE13F1070EDE6AE806FDE29F
:1034D0000B500C100D100E100F10101011101210B8
:1034E000D8B475EF9AF077EF9AF0C9EF9AF0010E21
:1034F0001B6E85EF9AF0D8900B360C360D360E36D3
:103500000F361036113612361B2A12AE8AEF9AF099
:103510008CEF9AF07BEF9AF0D8901336143615366C
:1035200016361736183619361A360B50035C0C50FF
:1035300004580D5005580E5006580F50075810509B
:1035400008581150095812500A58D8A0AAEF9AF0FA
:10355000ACEF9AF0BDEF9AF00B50035E0C50045A9A
:103560000D50055A0E50065A0F50075A1050085A5F
:103570001150095A12500A5A1380D890123211323F
:1035800010320F320E320D320C320B321B2E8CEFFA
:103590009AF013C503F514C504F515C505F516C550
:1035A00006F517C507F518C508F519C509F51AC5B3
:1035B0000AF512000501606F58505910D8A4E3EFC6
:1035C0009AF0E5EF9AF0E8EF9AF0F10E50EF9BF0E9
:1035D00058C503F559C504F5000E066E000E056EBC
:1035E000000E086E260E076ECFEC93F086ECA0F06E
:1035F000FF0E48140501616FFF0E4914626F000E43
:103600004A14636F000E4B14646F615162116311B1
:103610006411D8A40EEF9BF010EF9BF013EF9BF01A
:10362000F40E50EF9BF06051D8B419EF9BF01BEFF4
:103630009BF025EF9BF0FF0E6117FF0E6217000E47
:103640006317000E64172FEF9BF0100E5A6ED89080
:1036500064336333623361335A2E27EF9BF0000EDD
:103660006111186E000E6211196E030E63111A6E4D
:10367000000E64111B6E58C51CF559C51DF5000ED2
:103680001F6E260E1E6EE7EC99F00009D8B44BEFC2
:103690009BF04DEF9BF04FEF9BF010EF9BF0000E77
:1036A00012000B0E486E000E496E000E4A6E000EA0
:1036B0004B6E010E4C6E000E4D6E000E4E6E000EE7
:1036C0004F6E32ECA1F0010E486E000E496E000EF6
:1036D0004A6E000E4B6E020E4C6E000E4D6E000ECA
:1036E0004E6E000E4F6E32ECA1F0FBECA9F000091B
:1036F000D8B47DEF9BF07FEF9BF082EF9BF0000E44
:10370000C4EF9BF0040E0501606FB6EF9BF00F0E47
:10371000426E000E436E000E446E000E456E610E4A
:10372000466E050E476E1CECA7F00009D8B49BEF5F
:103730009BF09DEF9BF09FEF9BF07FEF9BF00501CF
:1037400061A5A5EF9BF0A7EF9BF0ACEF9BF0B2EC6F
:10375000A9F0010EC4EF9BF0020E066E000E076E7C
:10376000000E086E000E096E42ECA8F0050160071D
:103770006029D8A4BEEF9BF0C0EF9BF087EF9BF0D1
:10378000B2ECA9F07FEF9BF01200046E000184BF41
:10379000CCEF9BF0CEEF9BF034EF9CF00450050D86
:1037A000220EF324F66EFF0EF420F76EF86A000E78
:1037B000F8220800F5C484F00450050D010EF3262C
:1037C000000EF422220EF324F66EFF0EF420F76EA4
:1037D000F86A000EF8220800F5C485F00450050DC3
:1037E000020EF326000EF422220EF324F66EFF0ED4
:1037F000F420F76EF86A000EF8220800F55003096D
:10380000866F000E8C6F0450050D030EF326000E1C
:10381000F422220EF324F66EFF0EF420F76EF86AFF
:10382000000EF8220800F5C489F00450050D040EBE
:10383000F326000EF422220EF324F66EFF0EF4207F
:10384000F76EF86A000EF82208006100D4F303F561
:10385000033A03460346C8500318BF0B0318C86E4B
:10386000848F010E35EF9CF0000E1200000EC26E28
:10387000400EC16E000EBE6E010EC36E000EBF6E16
:10388000000EC06E070ECA6EFE0ECB6EC668C7680D
:103890002F0EC86E1F0EC96E1F0E0401186F1F0E6B
:1038A000106F0869070E206FFC0E286FBF0E006FA7
:1038B000000E196F000E296F000E216F000E096FA8
:1038C000C00E016F000E116F000E0201896F000E15
:1038D000886F000E876F000E866F000E0401226F46
:1038E000000E2A6F000E026F000E0A6F000E126F9C
:1038F000000E1A6F3F0E036F0B697F0E136F1F0EC2
:103900001B6F070E236F2B6904690C6914691C690E
:103910000F0E246F2C69079D068D059D480E036EC2
:10392000540E046E010E056EEFECA9F09E8E160E7D
:1039300002016A6F320E156F310E176F200E296F5C
:10394000290E726F150E6B6F120030500601E15D8B
:103950003150E259D8B0AFEF9CF0B1EF9CF0B4EF2A
:103960009CF0F40E0EEF9DF00701F3512A5CF45128
:103970002B58F5512C58F6512D58D8A0C2EF9CF079
:10398000C4EF9CF0B1EF9CF030502A24326E3150DD
:103990002B20336E000E2C20346E000E2D20356E41
:1039A0000601E1510701F325366E0601E2510701D8
:1039B000F421376E000EF521386E000EF621396EB7
:1039C0003250365C335037583450385835503958A7
:1039D000D8B0EDEF9CF0EFEF9CF0F1EF9CF0B1EF81
:1039E0009CF02AC518F52BC519F52CC51AF52DC55F
:1039F0001BF52EC51CF52FC51DF530C51EF531C5AF
:103A00001FF5E7EC99F00009D8B409EF9DF00BEF32
:103A10009DF00DEF9DF0B1EF9CF0000E1200586E7E
:103A200014ECAAF00009D8A418EF9DF01AEF9DF04D
:103A30001DEF9DF0010E76EF9DF01AECAAF018EC48
:103A4000AAF0320E066E000E076E000E086E000E13
:103A5000096E42ECA8F01CECAAF00A0E066E000EED
:103A6000076E000E086E000E096E42ECA8F016EC10
:103A7000AAF00A0E066E000E076E000E086E000E0B
:103A8000096E42ECA8F0A7ECA9F00009D8B44BEFFE
:103A90009DF04DEF9DF04FEF9DF01AEF9DF05850C7
:103AA000D8B455EF9DF057EF9DF075EF9DF0C4EC45
:103AB000A4F00009D8A45FEF9DF061EF9DF063EFE3
:103AC0009DF01AEF9DF0000E286E030E296E020E77
:103AD0002A6E000E2B6E000E2C6E000E2D6E000E48
:103AE0002E6E000E2F6E43ECA6F0000E12000B504F
:103AF0000C100D100E100F10101011101210D8B461
:103B000084EF9DF086EF9DF0CEEF9DF0010E136ED9
:103B100094EF9DF0D8900B360C360D360E360F36DE
:103B2000103611361236132A12AE99EF9DF09BEF24
:103B30009DF08AEF9DF00B50035C0C5004580D5023
:103B400005580E5006580F5007581050085811507D
:103B5000095812500A58D8A0B0EF9DF0B2EF9DF06E
:103B6000C2EF9DF00B50035E0C50045A0D50055AE5
:103B70000E50065A0F50075A1050085A1150095A41
:103B800012500A5AD8901232113210320F320E32BD
:103B90000D320C320B32132E9BEF9DF003C503F553
:103BA00004C504F505C505F506C506F507C507F501
:103BB00008C508F509C509F50AC50AF5120022EE7F
:103BC000E2F011EE1DF1060EDBC4E3F4E806FCE2C0
:103BD0005C50D8B4EEEF9DF0F0EF9DF0F3EF9DF068
:103BE000010E44EF9EF0010E5C6E1B041C10D8A465
:103BF000FCEF9DF0FEEF9DF002EF9EF0000E1C6EBC
:103C0000020E1B6E17C51EF516C51FF515C520F54E
:103C1000000E216E1C50226E1BC523F51D0E116E69
:103C2000050E126E070E136EDFECA5F00009D8B476
:103C30001CEF9EF01EEF9EF020EF9EF0F0EF9DF047
:103C400019C50EF51AC50FF51BC510F51CC511F5E4
:103C50006DEC9FF00009D8B430EF9EF032EF9EF08B
:103C600034EF9EF0F0EF9DF0C30EA8EC9EF000093B
:103C7000D8B43DEF9EF03FEF9EF041EF9EF0F0EFA5
:103C80009DF0000E5C6E000E12000601DFA14BEFEE
:103C90009EF04DEF9EF057EF9EF017C50EF518C53C
:103CA0000FF515C510F516C511F545ECA7F01ABEB0
:103CB0005CEF9EF05EEF9EF064EF9EF019C51EF57E
:103CC0001AC51FF568EF9EF0000E1F6E000E1E6EE7
:103CD000000E1D6E000E1C6E7AEF9EF0000E066E3A
:103CE000200E056E15C507F516C508F5BAECA3F04C
:103CF0001C4A1D2A1E501C5C1D50800A1B6E1F5042
:103D0000800A1B58D8A087EF9EF089EF9EF06EEFD7
:103D10009EF00601DFB18FEF9EF091EF9EF09BEFDA
:103D20009EF017C50EF518C50FF515C510F516C58B
:103D300011F545ECA7F017C503F518C504F5C9EC56
:103D4000A6F01E500324156E1F500420166E12009C
:103D50000F6E0A0E0E6E100E0A6E050E0B6E000E22
:103D60000D6E010E0C6E1FECA3F00009D8A4BBEF82
:103D70009EF0BDEF9EF0C0EF9EF0FF0E0AEF9FF0A9
:103D8000F00E0F18D8A4C7EF9EF0C9EF9EF0D7EF42
:103D90009EF01050F00BF00AD8A4D1EF9EF0D3EFB4
:103DA0009EF0D7EF9EF01050F00B0AEF9FF00F50EF
:103DB0001018D8A4DEEF9EF0E0EF9EF0F7EF9EF033
:103DC000100E0A6E050E0B6E000E0D6E010E0C6EBF
:103DD0001FECA3F00009D8A4F0EF9EF0F2EF9EF0E4
:103DE000F4EF9EF0BDEF9EF010500AEF9FF01050E0
:103DF000D8A4FDEF9EF0FFEF9EF0BDEF9EF00E0603
:103E00000E28D8A406EF9FF008EF9FF0ABEF9EF0CE
:103E1000BDEF9EF01200000E086E06BE14EF9FF07C
:103E200012EF9FF01AEF9FF0056C061ED8B0062A1D
:103E3000010E086E04BE21EF9FF01FEF9FF027EFE9
:103E40009FF0036C041ED8B0042A010E081A000E5D
:103E50000A6E000E096E05500610D8B432EF9FF0BE
:103E600034EF9FF05CEF9FF0010E076E3CEF9FF088
:103E7000D89005360636072A06AE41EF9FF043EF8D
:103E80009FF038EF9FF0D89009360A360550035C52
:103E900006500458D8A04FEF9FF051EF9FF056EF17
:103EA0009FF00550035E0650045A0980D8900632F0
:103EB0000532072E43EF9FF00850D8B462EF9FF011
:103EC00064EF9FF068EF9FF0096C0A1ED8B00A2AD1
:103ED00009C503F50AC504F51200F10E126EC3EF11
:103EE0009FF01004200E1158D8B079EF9FF07BEFAF
:103EF0009FF081EF9FF010C513F511C514F585EF04
:103F00009FF0200E146E000E136E1350105E1450AE
:103F1000115A10501110D8A490EF9FF092EF9FF01B
:103F200094EF9FF0F30E126E120E0A6E050E0B6EDA
:103F3000000E0D6E010E0C6ED1ECA2F00009D8A49B
:103F4000A4EF9FF0A6EF9FF0A9EF9FF0010ECDEF39
:103F50009FF00EC50AF50FC50BF513C50CF514C57A
:103F60000DF5D1ECA2F00009D8A4B9EF9FF0BBEF9A
:103F70009FF0BDEF9FF0A6EF9FF0F20E126E135070
:103F80000E2614500F2210501110D8A4CAEF9FF023
:103F9000CCEF9FF071EF9FF0000E1200FBECA9F048
:103FA0000009D8B4D6EF9FF0D8EF9FF0DBEF9FF079
:103FB000000E2AEFA0F0100E426E000E436E000EAF
:103FC000446E000E456E580E466E050E476E1CEC94
:103FD000A7F00009D8B4EFEF9FF0F1EF9FF0F3EFF7
:103FE0009FF0D8EF9FF058B0F8EF9FF0FAEF9FF0F6
:103FF000DBEF9FF0010E486E000E496E000E4A6E18
:10400000000E4B6E020E4C6E000E4D6E000E4E6E8C
:10401000000E4F6EDCECA0F00B0E486E000E496EE9
:10402000000E4A6E000E4B6E010E4C6E000E4D6E71
:10403000000E4E6E000E4F6EDCECA0F0FBECA9F013
:104040000009D8B426EFA0F029EFA0F0010E2AEF66
:10405000A0F0000E120003C50AF504C50BF505C556
:104060000CF506C50DF53CEFA0F00706D8A0080634
:104070000A4A0B2A0C4A0D2A07500810D8B443EFFD
:10408000A0F045EFA0F05FEFA0F0610028F4D9F4B4
:1040900061002CF4DAF4DF50096E610030F4F6F4BC
:1040A000610034F4F7F4000EF86E0800F5500918BA
:1040B000D8B45DEFA0F05FEFA0F035EFA0F00750AF
:1040C0000810D8A466EFA0F068EFA0F06EEFA0F0A3
:1040D000000E046E000E036E85EFA0F0610028F460
:1040E000D9F461002CF4DAF4DF50096E610030F489
:1040F000F6F4610034F4F7F4000EF86E0800F550A1
:10410000095C036E046AD8A004061200080E426E11
:10411000000E436E0C0E446E000E456E540E466E3D
:10412000050E476E1CECA7F00009D8B49AEFA0F07A
:104130009CEFA0F0A6EFA0F0000E486E000E496EB6
:10414000000E4A6E000E4B6EDBEFA0F0545055107F
:1041500056105710D8A4AFEFA0F0B1EFA0F0B3EF16
:10416000A0F09CEFA0F0000E5410186E000E551039
:10417000196E030E56101A6E000E57101B6E4C0E61
:104180001C6E050E1D6E000E1F6E080E1E6EE7ECF7
:1041900099F00009D8B4CFEFA0F0D1EFA0F0D3EFA1
:1041A000A0F09CEFA0F050C548F551C549F552C5A7
:1041B0004AF553C54BF5120048C542F549C543F5CC
:1041C0004AC544F54BC545F5540E466E050E476E7F
:1041D0001CECA7F04C505414506E4D505514516EB9
:1041E0004E505614526E4F505714536E505051103B
:1041F00052105310D8B4FFEFA0F001EFA1F023EF5D
:10420000A1F04C1C506E4D1C516E4E1C526E4F1C3A
:10421000536E505054165150551652505616535016
:10422000571648C528F549C529F54AC52AF54BC58D
:104230002BF554C52CF555C52DF556C52EF557C58E
:104240002FF543ECA6F0FBECA9F00009D8B42BEF56
:10425000A1F02DEFA1F030EFA1F0010E31EFA1F0B0
:10426000000E120048C542F549C543F54AC544F55C
:104270004BC545F5540E466E050E476E1CECA7F077
:104280004C505414506E4D505514516E4E5056149F
:10429000526E4F505714536E4C5050180FE14D5002
:1042A00051180CE14E50521809E14F505318D8B430
:1042B0005CEFA1F05EEFA1F078EFA1F04C5054124A
:1042C0004D5055124E5056124F50571248C528F5B2
:1042D00049C529F54AC52AF54BC52BF554C52CF51A
:1042E00055C52DF556C52EF557C52FF543ECA6F04F
:1042F000FBECA9F00009D8B480EFA1F082EFA1F0A7
:1043000085EFA1F0010E86EFA1F0000E1200500E15
:10431000F66E510EF76E010EF86E02EE00F110EE21
:104320002DF00900F5C4EEF4E550E150FAE1900EED
:10433000F66E530EF76E010EF86E02EED4F010EE2C
:1043400015F00900F5C4EEF4E550E150FAE14A0E2B
:10435000F66E540EF76E010EF86E09006100D4F38C
:10436000FEF5440EF66E540EF76E010EF86E09005F
:104370006100D4F35CF509006100D4F35DF502EE51
:1043800000F0D40EEE6AE806FDE101EEC2F3390E4C
:10439000EE6AE806FDE101EED3F2220EEE6AE806CF
:1043A000FDE10401080E5D6F000E5E6F000E5F6F91
:1043B000000181EFA2F024EFA2F0610034F4F6F4E2
:1043C000610038F4F7F4000EF86E0800F550E9ECDF
:1043D000A7F0106E0D4A0E2A0F0E1064F2EFA1F036
:1043E000F4EFA1F0F7EFA1F0F10E2EEFA2F01050D4
:1043F000100D61002CF4D9F4610030F4DAF4F3C448
:10440000DFF4610034F4F6F4610038F4F7F4000EE0
:10441000F86E0800F550E9ECA7F0106E0D4A0E2A70
:104420000F0E106416EFA2F018EFA2F01AEFA2F030
:10443000F4EFA1F061002CF4D9F4610030F4DAF467
:104440001050DF260B4A0C2A0F060F28D8A42BEF9A
:10445000A2F02DEFA2F0DDEFA1F0000E1200050199
:1044600072517311D8A437EFA2F039EFA2F03CEFEC
:10447000A2F0F10E80EFA2F06100C8F5D9F461005E
:10448000CCF5DAF4610078F3DAF6610078F3DBF664
:10449000610074F3DCF6000E0601EC6F000E0501FE
:1044A0006C6F610E6D6F130E6E6F300E6F6F130EAB
:1044B000706F000E67ECA7F00009D8B462EFA2F0AD
:1044C00064EFA2F067EFA2F0FB0E80EFA2F0020E05
:1044D0000701F16FD3ECA9F00009D8B472EFA2F094
:1044E00074EFA2F076EFA2F064EFA2F0750E050172
:1044F000656F050E666F72ECA6F00501746F74515E
:10450000120075ECA9F0D68E68ECA9F0A40E050196
:10451000746FFF0E756F11ECA9F02E0E036E090E6D
:10452000046E000E066E000E056E000E086E0E0E76
:10453000076ECFEC93F0C40E09012E6F180E2F6F8B
:10454000010E306F2E0E05019B6F090E9C6FBFECA4
:10455000A8F009012D6F2D51D8B4B1EFA2F0B3EF3F
:10456000A2F0C3EFA2F03A0E0501746FFF0E756F53
:1045700009012D510501766F776B76BF770711EC36
:10458000A9F0C1EFA2F0FF0E05ECA4F0000E0601A9
:10459000D16F000ED26F06ECAAF0C6EFA2F00DEFBD
:1045A00000F0F20EF66EFE0EF76E000EF86E02D8F8
:1045B000E7EFA2F00500FA6E0900F550FD6E090064
:1045C000F550FE6E0900F550FF6EFA501200C19CC6
:1045D0000AC504F50BC505F50CC506F50DC507F5AF
:1045E000FB0EF66EFE0EF76E000EF86E02D806EFAA
:1045F000A3F00500FA6E0900F550FD6E0900F550B4
:10460000FE6E0900F550FF6EFA501200C18CEF0EDD
:10461000F66EFE0EF76E000EF86E02D81DEFA3F0D8
:104620000500FA6E0900F550FD6E0900F550FE6EAA
:104630000900F550FF6EFA501200010E1200F20E42
:10464000F66EFE0EF76E000EF86E02D835EFA3F090
:104650000500FA6E0900F550FD6E0900F550FE6E7A
:104660000900F550FF6EFA501200C19C0AC504F50E
:104670000BC505F50CC506F50DC507F5FE0EF66E66
:10468000FE0EF76E000EF86E02D854EFA3F0050090
:10469000FA6E0900F550FD6E0900F550FE6E090036
:1046A000F550FF6EFA501200C18CEF0EF66EFE0E42
:1046B000F76E000EF86E02D86BEFA3F00500FA6EED
:1046C0000900F550FD6E0900F550FE6E0900F55029
:1046D000FF6EFA501200010E1200AFEFA3F01304A8
:1046E000200E1458D8B077EFA3F079EFA3F07FEF46
:1046F000A3F013C516F514C517F583EFA3F0200E2C
:10470000176E000E166EF00EA8EC9EF0156E0C0ED5
:104710001516D8B48EEFA3F090EFA3F093EFA3F0AB
:10472000010EB9EFA3F011C50AF512C50BF516C5B8
:104730000CF517C50DF51FECA3F00009D8A4A3EFE5
:10474000A3F0A5EFA3F0A7EFA3F090EFA3F016500E
:104750001126175012221650135E1750145A135078
:104760001410D8A4B6EFA3F0B8EFA3F06FEFA3F046
:10477000000E120007500810D8B4C1EFA3F0C3EF29
:10478000A3F0CCEFA3F007500810D8A4CAEFA3F011
:10479000CCEFA3F0D1EFA3F00550F6ECA9F004EFB5
:1047A000A4F020EE09F00750D9260850DA22DE5096
:1047B000DE10D8B4DEEFA3F0E0EFA3F0FBEFA3F040
:1047C00020EE09F00750D9260850DA2210EE03F047
:1047D0000750E1260850E222DE50E65CE650800AEF
:1047E0000D6EDE50800A0D58D8B0F9EFA3F0FBEF44
:1047F000A3F004EFA4F020EE03F00750D9260850F0
:10480000DA22DE2A000EDD2212000501926F060177
:10481000EC51D8A40EEFA4F010EFA4F049EFA4F0EF
:1048200005019251D8B417EFA4F019EFA4F021EFCD
:10483000A4F00E0E92651FEFA4F021EFA4F029EF73
:10484000A4F09229D8A427EFA4F029EFA4F047EF11
:10485000A4F092C58DF5100E876F8D0E886F050E32
:10486000896F000E8B6F040E8A6F010E08ECA8F0A2
:104870000501916F9151D8A440EFA4F042EFA4F04C
:104880004BEFA4F0010E0601EC6F4BEFA4F04BEFE1
:10489000A4F04BEFA4F01200A00E286E140E296EA7
:1048A000000E2A6E000E2B6E48C52CF549C52DF55D
:1048B0004AC52EF54BC52FF543ECA6F0A00E426E6F
:1048C000140E436E000E446E000E456E4C0E466E86
:1048D000050E476E1CECA7F00009D8B472EFA4F0E7
:1048E00074EFA4F076EFA4F088EFA4F048504C18D1
:1048F0000DE149504D180AE14A504E1807E14B505E
:104900004F18D8A486EFA4F088EFA4F04CEFA4F0E1
:104910001200080E486E140E496E000E4A6E000E0C
:104920004B6E000E4C6E010E4D6E000E4E6E000E64
:104930004F6E32ECA1F00009D8B4A1EFA4F0A3EFC0
:10494000A4F0A6EFA4F0000EC3EFA4F0000E486E92
:104950001A0E496E000E4A6E000E4B6E000E4C6E23
:10496000000E4D6E010E4E6E000E4F6E32ECA1F039
:104970000009D8B4BEEFA4F0C0EFA4F0C2EFA4F0D9
:10498000A3EFA4F0010E1200180E486E110E496E2E
:10499000000E4A6E000E4B6E010E4C6E000E4D6EF8
:1049A000000E4E6E000E4F6E32ECA1F00009D8B42E
:1049B000DCEFA4F0DEEFA4F0E1EFA4F0000EFEEFD8
:1049C000A4F0000E486E140E496E000E4A6E000EE2
:1049D0004B6E000E4C6E040E4D6E000E4E6E000EB1
:1049E0004F6EDCECA0F00009D8B4F9EFA4F0FBEFB7
:1049F000A4F0FDEFA4F0DEEFA4F0010E1200000E13
:104A00000201A56F000EA66F000EA76F000EA86F23
:104A1000000EA96F000EAA6FA00EAB6F800EAC6FD8
:104A2000000EAD6F100EAE6F000EAF6F000EB06FC8
:104A3000000EB16F000EB26F000EB36F000E036E6A
:104A4000000E046E000E056EE1ECA9F0000E036E80
:104A5000000E046E000E056EDAECA9F0000E036E77
:104A6000000E046E000E056EE8ECA9F0000E0601C3
:104A7000E96F120005C50CF506C50DF503C50AF56D
:104A800004C50BF565EFA5F0610030F4F6F46100A4
:104A900034F4F7F4000EF86E250EF76403D0080026
:104AA000F55005D0F6C4E9F4F7C4EAF4EF50096E06
:104AB0000C4A0D2A610028F4D9F461002CF4DAF4D0
:104AC000610024F4DFF40A4A0B2A0706D8A008067E
:104AD000072806E10828D8A470EFA5F072EFA5F02A
:104AE00044EFA5F012005C50D8B479EFA5F07BEF4D
:104AF000A5F085EFA5F0000E426E000E436E000E8D
:104B0000446E000E456EA9EFA5F0010E5C6E42C525
:104B100018F543C519F544C51AF545C51BF5460EEC
:104B20001C6E050E1D6E94EC97F00009D8B49BEF37
:104B3000A5F09DEFA5F09FEFA5F07BEFA5F0000E8F
:104B40005C6E46C542F547C543F548C544F549C5C1
:104B500045F5120050C554F551C555F5000E070135
:104B6000EB6F000EEA6FC8EFA5F04EC544F54FC5D8
:104B700045F5540E466E050E476E52C548F553C5B1
:104B800049F5B6EC82F044500701EA274550EB2383
:104B9000610050F5F6F4610054F5F7F4000EF86E7C
:104BA0000800F5500009D8A4D8EFA5F0DAEFA5F079
:104BB000B5EFA5F0EAC74EF5EBC74FF5120011C5EA
:104BC0000AF512C50BF513C50CF50D6AD1ECA2F070
:104BD0000009D8A4EEEFA5F0F0EFA5F0F3EFA5F0F3
:104BE000010E13EFA6F0610044F4F6F4610048F4FE
:104BF000F7F4000EF86E250EF76403D00800F550A8
:104C000005D0F6C4E9F4F7C4EAF4EF50A8EC9EF03E
:104C10000009D8B40EEFA6F010EFA6F012EFA6F040
:104C2000F0EFA5F0000E120005018F6F010E0F6E60
:104C3000000E116E000E106E8DC512F58EC513F5A7
:104C4000910E146E050E156E05018F510FEC8BF051
:104C50000501906F9051D8A430EFA6F032EFA6F086
:104C600041EFA6F03B0E876F910E886F050E896F9E
:104C7000000E8B6F300E8A6F010E08ECA8F0050154
:104C8000906F905112005C50D8B449EFA6F04BEFF2
:104C9000A6F04EEFA6F0010E71EFA6F0010E5C6ECD
:104CA00028C514F529C515F52AC516F52BC517F520
:104CB0002CC518F52DC519F52EC51AF52FC51BF5F0
:104CC000010E1C6E61EC99F00009D8B46AEFA6F0F1
:104CD0006CEFA6F06EEFA6F04BEFA6F0000E5C6E48
:104CE000000E120088ECA7F00501676F6751D8B479
:104CF0007CEFA6F07EEFA6F081EFA6F067519DEF66
:104D0000A6F065C558F566C559F5010EDAEC9AF0BE
:104D10000501676FF3ECA6F005016751D8B493EF76
:104D2000A6F095EFA6F097EFA6F07EEFA6F065C58A
:104D300003F566C504F539EC98F0120004C508F5D2
:104D400005C509F5BBEFA6F0610020F4F6F461009B
:104D500024F4F7F4000EF86E250EF76403D0080073
:104D6000F55005D0F6C4E9F4F7C4EAF4EF5049EC85
:104D7000A9F0084A092A0606D8A00706062806E16F
:104D80000728D8A4C6EFA6F0C8EFA6F0A4EFA6F0B7
:104D9000120003C505F504C506F5D1EFA6F0034AD8
:104DA000042A61000CF4F6F4610010F4F7F4000E2C
:104DB000F86E250EF76403D00800F55005D0F6C450
:104DC000E9F4F7C4EAF4EF500009D8A4EAEFA6F03A
:104DD000ECEFA6F0CFEFA6F00550035C036E065093
:104DE0000458046E12000601E751D8B4FAEFA6F099
:104DF000FCEFA6F0FDEFA6F0E707E751D8A403EF1C
:104E0000A7F005EFA7F01AEFA7F0E651D8B40BEF23
:104E1000A7F00DEFA7F01AEFA7F0CEEC9FF0000976
:104E2000D8A415EFA7F017EFA7F01AEFA7F0F40E2C
:104E30001BEFA7F0000E12005C50D8B422EFA7F0D1
:104E400024EFA7F027EFA7F0010E44EFA7F0010E23
:104E50005C6E42C518F543C519F544C51AF545C53C
:104E60001BF546C51CF547C51DF594EC97F00009E8
:104E7000D8B43DEFA7F03FEFA7F041EFA7F024EF44
:104E8000A7F0000E5C6E000E1200000E146E000EF5
:104E9000136E56EFA7F012C505F5066A10C507F5A3
:104EA00011C508F5BAECA3F0134A142A13500E24C6
:104EB000D96E14500F20DA6EDF50126E1250D8A443
:104EC00064EFA7F066EFA7F04BEFA7F01200050123
:104ED000716F6CC560F56DC561F56EC562F56FC526
:104EE00063F570C564F505017151A7EC84F0000904
:104EF000D8B47DEFA7F07FEFA7F082EFA7F0000E08
:104F000087EFA7F012ECAAF003ECAAF0010E120052
:104F10000601E72BE705D8A490EFA7F092EFA7F0E2
:104F2000A7EFA7F0E651D8B498EFA7F09AEFA7F053
:104F3000A7EFA7F051EC9BF00009D8A4A2EFA7F0CF
:104F4000A4EFA7F0A7EFA7F0F40EA8EFA7F0000ECC
:104F5000120016BEB6EFA7F0165006E11504D8B041
:104F6000B4EFA7F0B6EFA7F0C4EFA7F015C517F59B
:104F700016C518F5171E181E174A182A17C515F555
:104F800018C516F5C8EFA7F015C515F516C516F521
:104F9000120004C508F505C509F5DBEFA7F0000E02
:104FA00049ECA9F0610020F4D9F4610024F4DAF4AA
:104FB000DF6E084A092A0606D8A00706062806E179
:104FC0000728D8A4E6EFA7F0E8EFA7F0CFEFA7F007
:104FD0001200036E300E035E0A0E0360F2EFA7F0BC
:104FE000F4EFA7F0F7EFA7F0035007EFA8F0038A5C
:104FF000310E035E060E036000EFA8F002EFA8F08A
:1050000006EFA8F003500A0F07EFA8F0FF0E1200FA
:1050100005018C6F87C565F588C566F589C567F597
:105020008AC568F58BC569F5000E05016A6F000E2B
:105030006B6F000E6D6F000E6C6F000E6F6F000EC9
:105040006E6F8C5183EC86F012006100E8F301F57D
:105050006100ECF302F59EAE30EFA8F032EFA8F05D
:105060003BEFA8F0AEAE37EFA8F039EFA8F03BEF7A
:10507000A8F0BDECA9F0610008F4FBF4610004F4B1
:10508000FAF411004AEFA8F0000E046E010E036E50
:1050900091ECA8F00606000E075A085A095A06288D
:1050A0000AE1072808E1082806E10928D8A45BEFEF
:1050B000A8F05DEFA8F044EFA8F012000701FB5143
:1050C000FC11FD11D8B467EFA8F069EFA8F076EFF6
:1050D000A8F002D876EFA8F00500FA6EFB51FD6E3D
:1050E000FC51FE6EFD51FF6EFA5012000401079D47
:1050F0001200036E0350D8B480EFA8F082EFA8F03E
:1051000090EFA8F00401069D0601E851D8B48BEF9A
:10511000A8F08DEFA8F08EEFA8F0E8070401068D47
:1051200012009AEFA8F0030E056E980EE82EFED737
:10513000052EFCD70306D8A00406032806E10428A0
:10514000D8A4A5EFA8F0A7EFA8F093EFA8F012005D
:105150002C04001B08000630003218003D00002F10
:105160006400340400110400132C000404006504DE
:0D517000000964002A04002704003E00002E
:10517E00EBECA8F005019D6F9D51D8A4C9EFA8F0E6
:10518E00CBEFA8F0D3EFA8F09BC572F59CC573F5D5
:10519E002FECA2F005019D6F9D511200C3C6CFF5F5
:1051AE00C4C6D0F5C5C6D1F5C6C6D2F5C7C6D3F5A9
:1051BE00C8C6D4F5C9C6D5F5CAC6D6F5000E0501C2
:1051CE00D76F9DEC89F01200000E0FEC9DF00009D8
:1051DE00D8B4F4EFA8F0F6EFA8F0F9EFA8F0F40EBB
:1051EE00FDEFA8F0010E0701F16F000E1200076E21
:1051FE000750056E066A0650000AD8B409EFA9F0EA
:10520E0010EFA9F005502C0AD8B410EFA9F010EF4A
:10521E00A9F01200760E566E050E576E000E4E6EEB
:10522E00000E4F6E74C550F575C551F5560E526E83
:10523E00050E536EAAECA5F0120005018D6F8DC5FB
:10524E008EF5120E0501876F8E0E886F050E896F13
:10525E00000E8B6F040E8A6F010E08ECA8F0120080
:10526E00000E0001606F000E616F000E636F000E86
:10527E00646F000E656F000E666F000E676F000E96
:10528E00686F1200036E010E0001826F61000CF454
:10529E0081F0B1A055EFA9F057EFA9F050EFA9F0AA
:1052AE00000180511200600E0001AD6F000EAF6F55
:1052BE00000EB36F030EB16F000EB06F000EAC6F29
:1052CE001200000E0601E86F1E0E036E540E046EE1
:1052DE00010E056EEFECA9F0D68E120020ECAAF0AE
:1052EE0037ECA9F036EC9CF05AECA9F0FFECA4F0E8
:1052FE0082ECA9F01200020E0001846F400E856F41
:10530E00000E866F000E8C6F000E896FC89C120007
:10531E000601E851D8A496EFA9F099EFA9F0010E75
:10532E009AEFA9F0000E1200036EB2A2A1EFA9F03F
:10533E00A3EFA9F09CEFA9F061000CF4A3F2120008
:10534E00000E5C6E2C0E116EFF0E126E090E136E99
:10535E00DFECA5F01200000E5C6E350E116EFF0E26
:10536E00126E050E136EDFECA5F01200040107ADF0
:10537E00C3EFA9F0C5EFA9F0C7EFA9F05EECA8F056
:10538E001200286E756C6C2900C800000000000029
:07539E00C700000000000041
:1053A600000E0601E76F000EE66F000E120003C541
:1053B600ECF804C5EDF805C5EEF8120003C5EFF8E4
:1053C60004C5F0F805C5F1F8120003C5E9F804C5EF
:1053D600EAF805C5EBF8120003C5FBF704C5FCF7B0
:1053E60005C5FDF71200046E04509BECA9F01200EF
:1053F6005CC503F503501200010EC5EC9BF01200CC
:10540600010E5C6E1200AFEC8DF012000701F25136
:1054160012000001849F12000601E82B1200010E03
:105426001200010E1200C08E1200C09E1200C19E14
:105436001200C18E1200F40E1200D69A120001FF5D
:05544600120012000439
:020000040020DA
:10000000FF0FFF0FFF0FFF0FFF0FFF0FFF0FFF0F80
:10001000FF0FFF0FFF0FFF0FFF0FFF0FFF0FFF0F70
:020000040030CA
:0A000000ECFFF7FF9FFFFFFFFFFF7B
:00000001FF
